{
  "_format": "hh-sol-artifact-1",
  "contractName": "ValuableCoinsV3",
  "sourceName": "contracts/ValuableCoinsV3.sol",
  "abi": [
    {
      "inputs": [
        {
          "internalType": "address payable",
          "name": "_feeTo",
          "type": "address"
        },
        {
          "internalType": "uint256",
          "name": "_totalsupply",
          "type": "uint256"
        }
      ],
      "stateMutability": "nonpayable",
      "type": "constructor"
    },
    {
      "anonymous": false,
      "inputs": [
        {
          "indexed": true,
          "internalType": "address",
          "name": "owner",
          "type": "address"
        },
        {
          "indexed": true,
          "internalType": "address",
          "name": "spender",
          "type": "address"
        },
        {
          "indexed": false,
          "internalType": "uint256",
          "name": "value",
          "type": "uint256"
        }
      ],
      "name": "Approval",
      "type": "event"
    },
    {
      "anonymous": false,
      "inputs": [
        {
          "indexed": true,
          "internalType": "address",
          "name": "previousOwner",
          "type": "address"
        },
        {
          "indexed": true,
          "internalType": "address",
          "name": "newOwner",
          "type": "address"
        }
      ],
      "name": "OwnershipTransferred",
      "type": "event"
    },
    {
      "anonymous": false,
      "inputs": [
        {
          "indexed": true,
          "internalType": "address",
          "name": "from",
          "type": "address"
        },
        {
          "indexed": true,
          "internalType": "address",
          "name": "to",
          "type": "address"
        },
        {
          "indexed": false,
          "internalType": "uint256",
          "name": "value",
          "type": "uint256"
        }
      ],
      "name": "Transfer",
      "type": "event"
    },
    {
      "inputs": [
        {
          "internalType": "address",
          "name": "owner",
          "type": "address"
        },
        {
          "internalType": "address",
          "name": "spender",
          "type": "address"
        }
      ],
      "name": "allowance",
      "outputs": [
        {
          "internalType": "uint256",
          "name": "",
          "type": "uint256"
        }
      ],
      "stateMutability": "view",
      "type": "function"
    },
    {
      "inputs": [
        {
          "internalType": "address",
          "name": "spender",
          "type": "address"
        },
        {
          "internalType": "uint256",
          "name": "amount",
          "type": "uint256"
        }
      ],
      "name": "approve",
      "outputs": [
        {
          "internalType": "bool",
          "name": "",
          "type": "bool"
        }
      ],
      "stateMutability": "nonpayable",
      "type": "function"
    },
    {
      "inputs": [
        {
          "internalType": "address",
          "name": "account",
          "type": "address"
        }
      ],
      "name": "balanceOf",
      "outputs": [
        {
          "internalType": "uint256",
          "name": "",
          "type": "uint256"
        }
      ],
      "stateMutability": "view",
      "type": "function"
    },
    {
      "inputs": [],
      "name": "decimals",
      "outputs": [
        {
          "internalType": "uint8",
          "name": "",
          "type": "uint8"
        }
      ],
      "stateMutability": "view",
      "type": "function"
    },
    {
      "inputs": [
        {
          "internalType": "address",
          "name": "spender",
          "type": "address"
        },
        {
          "internalType": "uint256",
          "name": "subtractedValue",
          "type": "uint256"
        }
      ],
      "name": "decreaseAllowance",
      "outputs": [
        {
          "internalType": "bool",
          "name": "",
          "type": "bool"
        }
      ],
      "stateMutability": "nonpayable",
      "type": "function"
    },
    {
      "inputs": [],
      "name": "feeFlag",
      "outputs": [
        {
          "internalType": "bool",
          "name": "",
          "type": "bool"
        }
      ],
      "stateMutability": "view",
      "type": "function"
    },
    {
      "inputs": [],
      "name": "feeTo",
      "outputs": [
        {
          "internalType": "address",
          "name": "",
          "type": "address"
        }
      ],
      "stateMutability": "view",
      "type": "function"
    },
    {
      "inputs": [
        {
          "internalType": "address",
          "name": "spender",
          "type": "address"
        },
        {
          "internalType": "uint256",
          "name": "addedValue",
          "type": "uint256"
        }
      ],
      "name": "increaseAllowance",
      "outputs": [
        {
          "internalType": "bool",
          "name": "",
          "type": "bool"
        }
      ],
      "stateMutability": "nonpayable",
      "type": "function"
    },
    {
      "inputs": [],
      "name": "name",
      "outputs": [
        {
          "internalType": "string",
          "name": "",
          "type": "string"
        }
      ],
      "stateMutability": "view",
      "type": "function"
    },
    {
      "inputs": [],
      "name": "owner",
      "outputs": [
        {
          "internalType": "address",
          "name": "",
          "type": "address"
        }
      ],
      "stateMutability": "view",
      "type": "function"
    },
    {
      "inputs": [],
      "name": "renounceOwnership",
      "outputs": [],
      "stateMutability": "nonpayable",
      "type": "function"
    },
    {
      "inputs": [
        {
          "internalType": "bool",
          "name": "_feeFlag",
          "type": "bool"
        }
      ],
      "name": "setFeeFlag",
      "outputs": [],
      "stateMutability": "nonpayable",
      "type": "function"
    },
    {
      "inputs": [
        {
          "internalType": "address payable",
          "name": "_feeTo",
          "type": "address"
        }
      ],
      "name": "setFeeTo",
      "outputs": [],
      "stateMutability": "nonpayable",
      "type": "function"
    },
    {
      "inputs": [],
      "name": "symbol",
      "outputs": [
        {
          "internalType": "string",
          "name": "",
          "type": "string"
        }
      ],
      "stateMutability": "view",
      "type": "function"
    },
    {
      "inputs": [],
      "name": "totalSupply",
      "outputs": [
        {
          "internalType": "uint256",
          "name": "",
          "type": "uint256"
        }
      ],
      "stateMutability": "view",
      "type": "function"
    },
    {
      "inputs": [
        {
          "internalType": "address",
          "name": "to",
          "type": "address"
        },
        {
          "internalType": "uint256",
          "name": "amount",
          "type": "uint256"
        }
      ],
      "name": "transfer",
      "outputs": [
        {
          "internalType": "bool",
          "name": "",
          "type": "bool"
        }
      ],
      "stateMutability": "nonpayable",
      "type": "function"
    },
    {
      "inputs": [
        {
          "internalType": "address",
          "name": "from",
          "type": "address"
        },
        {
          "internalType": "address",
          "name": "to",
          "type": "address"
        },
        {
          "internalType": "uint256",
          "name": "amount",
          "type": "uint256"
        }
      ],
      "name": "transferFrom",
      "outputs": [
        {
          "internalType": "bool",
          "name": "",
          "type": "bool"
        }
      ],
      "stateMutability": "nonpayable",
      "type": "function"
    },
    {
      "inputs": [
        {
          "internalType": "address",
          "name": "newOwner",
          "type": "address"
        }
      ],
      "name": "transferOwnership",
      "outputs": [],
      "stateMutability": "nonpayable",
      "type": "function"
    }
  ],
  "bytecode": "0x60806040523480156200001157600080fd5b50604051620012d8380380620012d88339810160408190526200003491620002ed565b604080518082018252600d81526c56616c7561626c65436f696e7360981b602080830191825283518085019094526002845261564360f01b908401528151919291620000839160039162000247565b5080516200009990600490602084019062000247565b505050620000b6620000b06200010960201b60201c565b6200010d565b600680546001600160a81b0319166001600160a01b0384169081179091556200010190620000e2601290565b620000ef90600a6200038b565b620000fb908462000459565b6200015f565b5050620004ce565b3390565b600580546001600160a01b038381166001600160a01b0319831681179093556040519116919082907f8be0079c531659141344cd1fd0a4f28419497f9722a3daafe3b4186f6b6457e090600090a35050565b6001600160a01b038216620001ba5760405162461bcd60e51b815260206004820152601f60248201527f45524332303a206d696e7420746f20746865207a65726f206164647265737300604482015260640160405180910390fd5b8060026000828254620001ce919062000327565b90915550506001600160a01b03821660009081526020819052604081208054839290620001fd90849062000327565b90915550506040518181526001600160a01b038316906000907fddf252ad1be2c89b69c2b068fc378daa952ba7f163c4a11628f55a4df523b3ef9060200160405180910390a35050565b82805462000255906200047b565b90600052602060002090601f016020900481019282620002795760008555620002c4565b82601f106200029457805160ff1916838001178555620002c4565b82800160010185558215620002c4579182015b82811115620002c4578251825591602001919060010190620002a7565b50620002d2929150620002d6565b5090565b5b80821115620002d25760008155600101620002d7565b6000806040838503121562000300578182fd5b82516001600160a01b038116811462000317578283fd5b6020939093015192949293505050565b600082198211156200033d576200033d620004b8565b500190565b600181815b8085111562000383578160001904821115620003675762000367620004b8565b808516156200037557918102915b93841c939080029062000347565b509250929050565b60006200039c60ff841683620003a3565b9392505050565b600082620003b45750600162000453565b81620003c35750600062000453565b8160018114620003dc5760028114620003e75762000407565b600191505062000453565b60ff841115620003fb57620003fb620004b8565b50506001821b62000453565b5060208310610133831016604e8410600b84101617156200042c575081810a62000453565b62000438838362000342565b80600019048211156200044f576200044f620004b8565b0290505b92915050565b6000816000190483118215151615620004765762000476620004b8565b500290565b600181811c908216806200049057607f821691505b60208210811415620004b257634e487b7160e01b600052602260045260246000fd5b50919050565b634e487b7160e01b600052601160045260246000fd5b610dfa80620004de6000396000f3fe608060405234801561001057600080fd5b50600436106101165760003560e01c806370a08231116100a2578063a457c2d711610071578063a457c2d71461023d578063a9059cbb14610250578063dd62ed3e14610263578063f2fde38b14610276578063f46901ed1461028957600080fd5b806370a08231146101f3578063715018a61461021c5780638da5cb5b1461022457806395d89b411461023557600080fd5b806318160ddd116100e957806318160ddd1461019757806323b872dd146101a9578063313ce567146101bc57806339509351146101cb5780636d8869cc146101de57600080fd5b8063017e7e581461011b57806306fdde031461014b578063095ea7b314610160578063118c689714610183575b600080fd5b60065461012e906001600160a01b031681565b6040516001600160a01b0390911681526020015b60405180910390f35b61015361029c565b6040516101429190610c87565b61017361016e366004610c3c565b61032e565b6040519015158152602001610142565b60065461017390600160a01b900460ff1681565b6002545b604051908152602001610142565b6101736101b7366004610bfc565b610346565b60405160128152602001610142565b6101736101d9366004610c3c565b61036a565b6101f16101ec366004610c67565b61038c565b005b61019b610201366004610ba8565b6001600160a01b031660009081526020819052604090205490565b6101f16103dd565b6005546001600160a01b031661012e565b610153610413565b61017361024b366004610c3c565b610422565b61017361025e366004610c3c565b61049d565b61019b610271366004610bc4565b61052a565b6101f1610284366004610ba8565b610555565b6101f1610297366004610ba8565b6105f0565b6060600380546102ab90610d5e565b80601f01602080910402602001604051908101604052809291908181526020018280546102d790610d5e565b80156103245780601f106102f957610100808354040283529160200191610324565b820191906000526020600020905b81548152906001019060200180831161030757829003601f168201915b5050505050905090565b60003361033c818585610684565b5060019392505050565b6000336103548582856107a9565b61035f858585610823565b506001949350505050565b60003361033c81858561037d838361052a565b6103879190610d0f565b610684565b6005546001600160a01b031633146103bf5760405162461bcd60e51b81526004016103b690610cda565b60405180910390fd5b60068054911515600160a01b0260ff60a01b19909216919091179055565b6005546001600160a01b031633146104075760405162461bcd60e51b81526004016103b690610cda565b61041160006109f1565b565b6060600480546102ab90610d5e565b60003381610430828661052a565b9050838110156104905760405162461bcd60e51b815260206004820152602560248201527f45524332303a2064656372656173656420616c6c6f77616e63652062656c6f77604482015264207a65726f60d81b60648201526084016103b6565b61035f8286868403610684565b6006546000903390600160a01b900460ff161561051f5760006104c1846032610a43565b905060006104d0856064610a43565b905060006104e8826104e28886610a56565b90610a56565b90506104f5848883610823565b60065461050d9085906001600160a01b031685610823565b6105178483610a62565b50505061033c565b61033c818585610823565b6001600160a01b03918216600090815260016020908152604080832093909416825291909152205490565b6005546001600160a01b0316331461057f5760405162461bcd60e51b81526004016103b690610cda565b6001600160a01b0381166105e45760405162461bcd60e51b815260206004820152602660248201527f4f776e61626c653a206e6577206f776e657220697320746865207a65726f206160448201526564647265737360d01b60648201526084016103b6565b6105ed816109f1565b50565b6005546001600160a01b0316331461061a5760405162461bcd60e51b81526004016103b690610cda565b6001600160a01b0381166106625760405162461bcd60e51b815260206004820152600f60248201526e496e76616c6964204164647265737360881b60448201526064016103b6565b600680546001600160a01b0319166001600160a01b0392909216919091179055565b6001600160a01b0383166106e65760405162461bcd60e51b8152602060048201526024808201527f45524332303a20617070726f76652066726f6d20746865207a65726f206164646044820152637265737360e01b60648201526084016103b6565b6001600160a01b0382166107475760405162461bcd60e51b815260206004820152602260248201527f45524332303a20617070726f766520746f20746865207a65726f206164647265604482015261737360f01b60648201526084016103b6565b6001600160a01b0383811660008181526001602090815260408083209487168084529482529182902085905590518481527f8c5be1e5ebec7d5bd14f71427d1e84f3dd0314c0f7b2291e5b200ac8c7c3b92591015b60405180910390a3505050565b60006107b5848461052a565b9050600019811461081d57818110156108105760405162461bcd60e51b815260206004820152601d60248201527f45524332303a20696e73756666696369656e7420616c6c6f77616e636500000060448201526064016103b6565b61081d8484848403610684565b50505050565b6001600160a01b0383166108875760405162461bcd60e51b815260206004820152602560248201527f45524332303a207472616e736665722066726f6d20746865207a65726f206164604482015264647265737360d81b60648201526084016103b6565b6001600160a01b0382166108e95760405162461bcd60e51b815260206004820152602360248201527f45524332303a207472616e7366657220746f20746865207a65726f206164647260448201526265737360e81b60648201526084016103b6565b6001600160a01b038316600090815260208190526040902054818110156109615760405162461bcd60e51b815260206004820152602660248201527f45524332303a207472616e7366657220616d6f756e7420657863656564732062604482015265616c616e636560d01b60648201526084016103b6565b6001600160a01b03808516600090815260208190526040808220858503905591851681529081208054849290610998908490610d0f565b92505081905550826001600160a01b0316846001600160a01b03167fddf252ad1be2c89b69c2b068fc378daa952ba7f163c4a11628f55a4df523b3ef846040516109e491815260200190565b60405180910390a361081d565b600580546001600160a01b038381166001600160a01b0319831681179093556040519116919082907f8be0079c531659141344cd1fd0a4f28419497f9722a3daafe3b4186f6b6457e090600090a35050565b6000610a4f8284610d27565b9392505050565b6000610a4f8284610d47565b6001600160a01b038216610ac25760405162461bcd60e51b815260206004820152602160248201527f45524332303a206275726e2066726f6d20746865207a65726f206164647265736044820152607360f81b60648201526084016103b6565b6001600160a01b03821660009081526020819052604090205481811015610b365760405162461bcd60e51b815260206004820152602260248201527f45524332303a206275726e20616d6f756e7420657863656564732062616c616e604482015261636560f01b60648201526084016103b6565b6001600160a01b0383166000908152602081905260408120838303905560028054849290610b65908490610d47565b90915550506040518281526000906001600160a01b038516907fddf252ad1be2c89b69c2b068fc378daa952ba7f163c4a11628f55a4df523b3ef9060200161079c565b600060208284031215610bb9578081fd5b8135610a4f81610daf565b60008060408385031215610bd6578081fd5b8235610be181610daf565b91506020830135610bf181610daf565b809150509250929050565b600080600060608486031215610c10578081fd5b8335610c1b81610daf565b92506020840135610c2b81610daf565b929592945050506040919091013590565b60008060408385031215610c4e578182fd5b8235610c5981610daf565b946020939093013593505050565b600060208284031215610c78578081fd5b81358015158114610a4f578182fd5b6000602080835283518082850152825b81811015610cb357858101830151858201604001528201610c97565b81811115610cc45783604083870101525b50601f01601f1916929092016040019392505050565b6020808252818101527f4f776e61626c653a2063616c6c6572206973206e6f7420746865206f776e6572604082015260600190565b60008219821115610d2257610d22610d99565b500190565b600082610d4257634e487b7160e01b81526012600452602481fd5b500490565b600082821015610d5957610d59610d99565b500390565b600181811c90821680610d7257607f821691505b60208210811415610d9357634e487b7160e01b600052602260045260246000fd5b50919050565b634e487b7160e01b600052601160045260246000fd5b6001600160a01b03811681146105ed57600080fdfea2646970667358221220ab0ee912c5c27f1aaab2061e2d11c345cf234791856c2578f78f04edf86649c164736f6c63430008040033",
  "linkReferences": {},
  "deployedLinkReferences": {}
}