{
  "_format": "hh-sol-artifact-1",
  "contractName": "ValuableCoinsV3",
  "sourceName": "contracts/ValuableCoinsV3.sol",
  "abi": [
    {
      "inputs": [
        {
          "internalType": "address payable",
          "name": "_feeTo",
          "type": "address"
        },
        {
          "internalType": "uint256",
          "name": "_totalsupply",
          "type": "uint256"
        }
      ],
      "stateMutability": "nonpayable",
      "type": "constructor"
    },
    {
      "anonymous": false,
      "inputs": [
        {
          "indexed": true,
          "internalType": "address",
          "name": "owner",
          "type": "address"
        },
        {
          "indexed": true,
          "internalType": "address",
          "name": "spender",
          "type": "address"
        },
        {
          "indexed": false,
          "internalType": "uint256",
          "name": "value",
          "type": "uint256"
        }
      ],
      "name": "Approval",
      "type": "event"
    },
    {
      "anonymous": false,
      "inputs": [
        {
          "indexed": true,
          "internalType": "address",
          "name": "previousOwner",
          "type": "address"
        },
        {
          "indexed": true,
          "internalType": "address",
          "name": "newOwner",
          "type": "address"
        }
      ],
      "name": "OwnershipTransferred",
      "type": "event"
    },
    {
      "anonymous": false,
      "inputs": [
        {
          "indexed": true,
          "internalType": "address",
          "name": "from",
          "type": "address"
        },
        {
          "indexed": true,
          "internalType": "address",
          "name": "to",
          "type": "address"
        },
        {
          "indexed": false,
          "internalType": "uint256",
          "name": "value",
          "type": "uint256"
        }
      ],
      "name": "Transfer",
      "type": "event"
    },
    {
      "inputs": [
        {
          "internalType": "address",
          "name": "owner",
          "type": "address"
        },
        {
          "internalType": "address",
          "name": "spender",
          "type": "address"
        }
      ],
      "name": "allowance",
      "outputs": [
        {
          "internalType": "uint256",
          "name": "",
          "type": "uint256"
        }
      ],
      "stateMutability": "view",
      "type": "function"
    },
    {
      "inputs": [
        {
          "internalType": "address",
          "name": "spender",
          "type": "address"
        },
        {
          "internalType": "uint256",
          "name": "amount",
          "type": "uint256"
        }
      ],
      "name": "approve",
      "outputs": [
        {
          "internalType": "bool",
          "name": "",
          "type": "bool"
        }
      ],
      "stateMutability": "nonpayable",
      "type": "function"
    },
    {
      "inputs": [
        {
          "internalType": "address",
          "name": "account",
          "type": "address"
        }
      ],
      "name": "balanceOf",
      "outputs": [
        {
          "internalType": "uint256",
          "name": "",
          "type": "uint256"
        }
      ],
      "stateMutability": "view",
      "type": "function"
    },
    {
      "inputs": [],
      "name": "decimals",
      "outputs": [
        {
          "internalType": "uint8",
          "name": "",
          "type": "uint8"
        }
      ],
      "stateMutability": "view",
      "type": "function"
    },
    {
      "inputs": [
        {
          "internalType": "address",
          "name": "spender",
          "type": "address"
        },
        {
          "internalType": "uint256",
          "name": "subtractedValue",
          "type": "uint256"
        }
      ],
      "name": "decreaseAllowance",
      "outputs": [
        {
          "internalType": "bool",
          "name": "",
          "type": "bool"
        }
      ],
      "stateMutability": "nonpayable",
      "type": "function"
    },
    {
      "inputs": [],
      "name": "feeFlag",
      "outputs": [
        {
          "internalType": "bool",
          "name": "",
          "type": "bool"
        }
      ],
      "stateMutability": "view",
      "type": "function"
    },
    {
      "inputs": [],
      "name": "feeTo",
      "outputs": [
        {
          "internalType": "address",
          "name": "",
          "type": "address"
        }
      ],
      "stateMutability": "view",
      "type": "function"
    },
    {
      "inputs": [
        {
          "internalType": "address",
          "name": "spender",
          "type": "address"
        },
        {
          "internalType": "uint256",
          "name": "addedValue",
          "type": "uint256"
        }
      ],
      "name": "increaseAllowance",
      "outputs": [
        {
          "internalType": "bool",
          "name": "",
          "type": "bool"
        }
      ],
      "stateMutability": "nonpayable",
      "type": "function"
    },
    {
      "inputs": [],
      "name": "name",
      "outputs": [
        {
          "internalType": "string",
          "name": "",
          "type": "string"
        }
      ],
      "stateMutability": "view",
      "type": "function"
    },
    {
      "inputs": [],
      "name": "owner",
      "outputs": [
        {
          "internalType": "address",
          "name": "",
          "type": "address"
        }
      ],
      "stateMutability": "view",
      "type": "function"
    },
    {
      "inputs": [],
      "name": "renounceOwnership",
      "outputs": [],
      "stateMutability": "nonpayable",
      "type": "function"
    },
    {
      "inputs": [
        {
          "internalType": "bool",
          "name": "_feeFlag",
          "type": "bool"
        }
      ],
      "name": "setFeeFlag",
      "outputs": [],
      "stateMutability": "nonpayable",
      "type": "function"
    },
    {
      "inputs": [
        {
          "internalType": "address payable",
          "name": "_feeTo",
          "type": "address"
        }
      ],
      "name": "setFeeTo",
      "outputs": [],
      "stateMutability": "nonpayable",
      "type": "function"
    },
    {
      "inputs": [],
      "name": "symbol",
      "outputs": [
        {
          "internalType": "string",
          "name": "",
          "type": "string"
        }
      ],
      "stateMutability": "view",
      "type": "function"
    },
    {
      "inputs": [],
      "name": "totalSupply",
      "outputs": [
        {
          "internalType": "uint256",
          "name": "",
          "type": "uint256"
        }
      ],
      "stateMutability": "view",
      "type": "function"
    },
    {
      "inputs": [
        {
          "internalType": "address",
          "name": "to",
          "type": "address"
        },
        {
          "internalType": "uint256",
          "name": "amount",
          "type": "uint256"
        }
      ],
      "name": "transfer",
      "outputs": [
        {
          "internalType": "bool",
          "name": "",
          "type": "bool"
        }
      ],
      "stateMutability": "nonpayable",
      "type": "function"
    },
    {
      "inputs": [
        {
          "internalType": "address",
          "name": "from",
          "type": "address"
        },
        {
          "internalType": "address",
          "name": "to",
          "type": "address"
        },
        {
          "internalType": "uint256",
          "name": "amount",
          "type": "uint256"
        }
      ],
      "name": "transferFrom",
      "outputs": [
        {
          "internalType": "bool",
          "name": "",
          "type": "bool"
        }
      ],
      "stateMutability": "nonpayable",
      "type": "function"
    },
    {
      "inputs": [
        {
          "internalType": "address",
          "name": "newOwner",
          "type": "address"
        }
      ],
      "name": "transferOwnership",
      "outputs": [],
      "stateMutability": "nonpayable",
      "type": "function"
    }
  ],
  "bytecode": "0x60806040523480156200001157600080fd5b5060405162002817380380620028178339818101604052810190620000379190620004f1565b6040518060400160405280600d81526020017f56616c7561626c65436f696e73000000000000000000000000000000000000008152506040518060400160405280600281526020017f56430000000000000000000000000000000000000000000000000000000000008152508160039080519060200190620000bb92919062000413565b508060049080519060200190620000d492919062000413565b505050620000f7620000eb620001b960201b60201c565b620001c160201b60201c565b81600660006101000a81548173ffffffffffffffffffffffffffffffffffffffff021916908373ffffffffffffffffffffffffffffffffffffffff1602179055506000600660146101000a81548160ff021916908315150217905550620001b1600660009054906101000a900473ffffffffffffffffffffffffffffffffffffffff166200018a6200028760201b60201c565b600a62000198919062000672565b83620001a59190620007af565b6200029060201b60201c565b505062000959565b600033905090565b6000600560009054906101000a900473ffffffffffffffffffffffffffffffffffffffff16905081600560006101000a81548173ffffffffffffffffffffffffffffffffffffffff021916908373ffffffffffffffffffffffffffffffffffffffff1602179055508173ffffffffffffffffffffffffffffffffffffffff168173ffffffffffffffffffffffffffffffffffffffff167f8be0079c531659141344cd1fd0a4f28419497f9722a3daafe3b4186f6b6457e060405160405180910390a35050565b60006012905090565b600073ffffffffffffffffffffffffffffffffffffffff168273ffffffffffffffffffffffffffffffffffffffff16141562000303576040517f08c379a0000000000000000000000000000000000000000000000000000000008152600401620002fa906200056a565b60405180910390fd5b62000317600083836200040960201b60201c565b80600260008282546200032b9190620005ba565b92505081905550806000808473ffffffffffffffffffffffffffffffffffffffff1673ffffffffffffffffffffffffffffffffffffffff1681526020019081526020016000206000828254620003829190620005ba565b925050819055508173ffffffffffffffffffffffffffffffffffffffff16600073ffffffffffffffffffffffffffffffffffffffff167fddf252ad1be2c89b69c2b068fc378daa952ba7f163c4a11628f55a4df523b3ef83604051620003e991906200058c565b60405180910390a362000405600083836200040e60201b60201c565b5050565b505050565b505050565b82805462000421906200085b565b90600052602060002090601f01602090048101928262000445576000855562000491565b82601f106200046057805160ff191683800117855562000491565b8280016001018555821562000491579182015b828111156200049057825182559160200191906001019062000473565b5b509050620004a09190620004a4565b5090565b5b80821115620004bf576000816000905550600101620004a5565b5090565b600081519050620004d48162000925565b92915050565b600081519050620004eb816200093f565b92915050565b600080604083850312156200050557600080fd5b60006200051585828601620004c3565b92505060206200052885828601620004da565b9150509250929050565b600062000541601f83620005a9565b91506200054e82620008fc565b602082019050919050565b620005648162000844565b82525050565b60006020820190508181036000830152620005858162000532565b9050919050565b6000602082019050620005a3600083018462000559565b92915050565b600082825260208201905092915050565b6000620005c78262000844565b9150620005d48362000844565b9250827fffffffffffffffffffffffffffffffffffffffffffffffffffffffffffffffff038211156200060c576200060b62000891565b5b828201905092915050565b6000808291508390505b6001851115620006695780860481111562000641576200064062000891565b5b6001851615620006515780820291505b80810290506200066185620008ef565b945062000621565b94509492505050565b60006200067f8262000844565b91506200068c836200084e565b9250620006bb7fffffffffffffffffffffffffffffffffffffffffffffffffffffffffffffffff8484620006c3565b905092915050565b600082620006d55760019050620007a8565b81620006e55760009050620007a8565b8160018114620006fe576002811462000709576200073f565b6001915050620007a8565b60ff8411156200071e576200071d62000891565b5b8360020a91508482111562000738576200073762000891565b5b50620007a8565b5060208310610133831016604e8410600b8410161715620007795782820a90508381111562000773576200077262000891565b5b620007a8565b62000788848484600162000617565b92509050818404811115620007a257620007a162000891565b5b81810290505b9392505050565b6000620007bc8262000844565b9150620007c98362000844565b9250817fffffffffffffffffffffffffffffffffffffffffffffffffffffffffffffffff048311821515161562000805576200080462000891565b5b828202905092915050565b60006200081d8262000824565b9050919050565b600073ffffffffffffffffffffffffffffffffffffffff82169050919050565b6000819050919050565b600060ff82169050919050565b600060028204905060018216806200087457607f821691505b602082108114156200088b576200088a620008c0565b5b50919050565b7f4e487b7100000000000000000000000000000000000000000000000000000000600052601160045260246000fd5b7f4e487b7100000000000000000000000000000000000000000000000000000000600052602260045260246000fd5b60008160011c9050919050565b7f45524332303a206d696e7420746f20746865207a65726f206164647265737300600082015250565b620009308162000810565b81146200093c57600080fd5b50565b6200094a8162000844565b81146200095657600080fd5b50565b611eae80620009696000396000f3fe608060405234801561001057600080fd5b50600436106101165760003560e01c806370a08231116100a2578063a457c2d711610071578063a457c2d7146102d3578063a9059cbb14610303578063dd62ed3e14610333578063f2fde38b14610363578063f46901ed1461037f57610116565b806370a082311461025d578063715018a61461028d5780638da5cb5b1461029757806395d89b41146102b557610116565b806318160ddd116100e957806318160ddd146101a557806323b872dd146101c3578063313ce567146101f357806339509351146102115780636d8869cc1461024157610116565b8063017e7e581461011b57806306fdde0314610139578063095ea7b314610157578063118c689714610187575b600080fd5b61012361039b565b604051610130919061168b565b60405180910390f35b6101416103c1565b60405161014e91906116c1565b60405180910390f35b610171600480360381019061016c919061140d565b610453565b60405161017e91906116a6565b60405180910390f35b61018f610476565b60405161019c91906116a6565b60405180910390f35b6101ad610489565b6040516101ba9190611863565b60405180910390f35b6101dd60048036038101906101d891906113be565b610493565b6040516101ea91906116a6565b60405180910390f35b6101fb6104c2565b604051610208919061187e565b60405180910390f35b61022b6004803603810190610226919061140d565b6104cb565b60405161023891906116a6565b60405180910390f35b61025b60048036038101906102569190611449565b610502565b005b61027760048036038101906102729190611330565b61059b565b6040516102849190611863565b60405180910390f35b6102956105e3565b005b61029f61066b565b6040516102ac919061168b565b60405180910390f35b6102bd610695565b6040516102ca91906116c1565b60405180910390f35b6102ed60048036038101906102e8919061140d565b610727565b6040516102fa91906116a6565b60405180910390f35b61031d6004803603810190610318919061140d565b61079e565b60405161032a91906116a6565b60405180910390f35b61034d60048036038101906103489190611382565b61087a565b60405161035a9190611863565b60405180910390f35b61037d60048036038101906103789190611330565b610901565b005b61039960048036038101906103949190611359565b6109f9565b005b600660009054906101000a900473ffffffffffffffffffffffffffffffffffffffff1681565b6060600380546103d090611a0a565b80601f01602080910402602001604051908101604052809291908181526020018280546103fc90611a0a565b80156104495780601f1061041e57610100808354040283529160200191610449565b820191906000526020600020905b81548152906001019060200180831161042c57829003601f168201915b5050505050905090565b60008061045e610b29565b905061046b818585610b31565b600191505092915050565b600660149054906101000a900460ff1681565b6000600254905090565b60008061049e610b29565b90506104ab858285610cfc565b6104b6858585610d88565b60019150509392505050565b60006012905090565b6000806104d6610b29565b90506104f78185856104e8858961087a565b6104f291906118b5565b610b31565b600191505092915050565b61050a610b29565b73ffffffffffffffffffffffffffffffffffffffff1661052861066b565b73ffffffffffffffffffffffffffffffffffffffff161461057e576040517f08c379a0000000000000000000000000000000000000000000000000000000008152600401610575906117a3565b60405180910390fd5b80600660146101000a81548160ff02191690831515021790555050565b60008060008373ffffffffffffffffffffffffffffffffffffffff1673ffffffffffffffffffffffffffffffffffffffff168152602001908152602001600020549050919050565b6105eb610b29565b73ffffffffffffffffffffffffffffffffffffffff1661060961066b565b73ffffffffffffffffffffffffffffffffffffffff161461065f576040517f08c379a0000000000000000000000000000000000000000000000000000000008152600401610656906117a3565b60405180910390fd5b6106696000611009565b565b6000600560009054906101000a900473ffffffffffffffffffffffffffffffffffffffff16905090565b6060600480546106a490611a0a565b80601f01602080910402602001604051908101604052809291908181526020018280546106d090611a0a565b801561071d5780601f106106f25761010080835404028352916020019161071d565b820191906000526020600020905b81548152906001019060200180831161070057829003601f168201915b5050505050905090565b600080610732610b29565b90506000610740828661087a565b905083811015610785576040517f08c379a000000000000000000000000000000000000000000000000000000000815260040161077c90611843565b60405180910390fd5b6107928286868403610b31565b60019250505092915050565b6000806107a9610b29565b9050600660149054906101000a900460ff16156108635760006107d66032856110cf90919063ffffffff16565b905060006107ee6064866110cf90919063ffffffff16565b905060006108178261080985896110e590919063ffffffff16565b6110e590919063ffffffff16565b9050610824848883610d88565b61085184600660009054906101000a900473ffffffffffffffffffffffffffffffffffffffff1685610d88565b61085b84836110fb565b50505061086f565b61086e818585610d88565b5b600191505092915050565b6000600160008473ffffffffffffffffffffffffffffffffffffffff1673ffffffffffffffffffffffffffffffffffffffff16815260200190815260200160002060008373ffffffffffffffffffffffffffffffffffffffff1673ffffffffffffffffffffffffffffffffffffffff16815260200190815260200160002054905092915050565b610909610b29565b73ffffffffffffffffffffffffffffffffffffffff1661092761066b565b73ffffffffffffffffffffffffffffffffffffffff161461097d576040517f08c379a0000000000000000000000000000000000000000000000000000000008152600401610974906117a3565b60405180910390fd5b600073ffffffffffffffffffffffffffffffffffffffff168173ffffffffffffffffffffffffffffffffffffffff1614156109ed576040517f08c379a00000000000000000000000000000000000000000000000000000000081526004016109e490611723565b60405180910390fd5b6109f681611009565b50565b610a01610b29565b73ffffffffffffffffffffffffffffffffffffffff16610a1f61066b565b73ffffffffffffffffffffffffffffffffffffffff1614610a75576040517f08c379a0000000000000000000000000000000000000000000000000000000008152600401610a6c906117a3565b60405180910390fd5b600073ffffffffffffffffffffffffffffffffffffffff168173ffffffffffffffffffffffffffffffffffffffff161415610ae5576040517f08c379a0000000000000000000000000000000000000000000000000000000008152600401610adc90611803565b60405180910390fd5b80600660006101000a81548173ffffffffffffffffffffffffffffffffffffffff021916908373ffffffffffffffffffffffffffffffffffffffff16021790555050565b600033905090565b600073ffffffffffffffffffffffffffffffffffffffff168373ffffffffffffffffffffffffffffffffffffffff161415610ba1576040517f08c379a0000000000000000000000000000000000000000000000000000000008152600401610b9890611823565b60405180910390fd5b600073ffffffffffffffffffffffffffffffffffffffff168273ffffffffffffffffffffffffffffffffffffffff161415610c11576040517f08c379a0000000000000000000000000000000000000000000000000000000008152600401610c0890611743565b60405180910390fd5b80600160008573ffffffffffffffffffffffffffffffffffffffff1673ffffffffffffffffffffffffffffffffffffffff16815260200190815260200160002060008473ffffffffffffffffffffffffffffffffffffffff1673ffffffffffffffffffffffffffffffffffffffff168152602001908152602001600020819055508173ffffffffffffffffffffffffffffffffffffffff168373ffffffffffffffffffffffffffffffffffffffff167f8c5be1e5ebec7d5bd14f71427d1e84f3dd0314c0f7b2291e5b200ac8c7c3b92583604051610cef9190611863565b60405180910390a3505050565b6000610d08848461087a565b90507fffffffffffffffffffffffffffffffffffffffffffffffffffffffffffffffff8114610d825781811015610d74576040517f08c379a0000000000000000000000000000000000000000000000000000000008152600401610d6b90611763565b60405180910390fd5b610d818484848403610b31565b5b50505050565b600073ffffffffffffffffffffffffffffffffffffffff168373ffffffffffffffffffffffffffffffffffffffff161415610df8576040517f08c379a0000000000000000000000000000000000000000000000000000000008152600401610def906117e3565b60405180910390fd5b600073ffffffffffffffffffffffffffffffffffffffff168273ffffffffffffffffffffffffffffffffffffffff161415610e68576040517f08c379a0000000000000000000000000000000000000000000000000000000008152600401610e5f906116e3565b60405180910390fd5b610e738383836112d2565b60008060008573ffffffffffffffffffffffffffffffffffffffff1673ffffffffffffffffffffffffffffffffffffffff16815260200190815260200160002054905081811015610ef9576040517f08c379a0000000000000000000000000000000000000000000000000000000008152600401610ef090611783565b60405180910390fd5b8181036000808673ffffffffffffffffffffffffffffffffffffffff1673ffffffffffffffffffffffffffffffffffffffff16815260200190815260200160002081905550816000808573ffffffffffffffffffffffffffffffffffffffff1673ffffffffffffffffffffffffffffffffffffffff1681526020019081526020016000206000828254610f8c91906118b5565b925050819055508273ffffffffffffffffffffffffffffffffffffffff168473ffffffffffffffffffffffffffffffffffffffff167fddf252ad1be2c89b69c2b068fc378daa952ba7f163c4a11628f55a4df523b3ef84604051610ff09190611863565b60405180910390a36110038484846112d7565b50505050565b6000600560009054906101000a900473ffffffffffffffffffffffffffffffffffffffff16905081600560006101000a81548173ffffffffffffffffffffffffffffffffffffffff021916908373ffffffffffffffffffffffffffffffffffffffff1602179055508173ffffffffffffffffffffffffffffffffffffffff168173ffffffffffffffffffffffffffffffffffffffff167f8be0079c531659141344cd1fd0a4f28419497f9722a3daafe3b4186f6b6457e060405160405180910390a35050565b600081836110dd919061190b565b905092915050565b600081836110f3919061193c565b905092915050565b600073ffffffffffffffffffffffffffffffffffffffff168273ffffffffffffffffffffffffffffffffffffffff16141561116b576040517f08c379a0000000000000000000000000000000000000000000000000000000008152600401611162906117c3565b60405180910390fd5b611177826000836112d2565b60008060008473ffffffffffffffffffffffffffffffffffffffff1673ffffffffffffffffffffffffffffffffffffffff168152602001908152602001600020549050818110156111fd576040517f08c379a00000000000000000000000000000000000000000000000000000000081526004016111f490611703565b60405180910390fd5b8181036000808573ffffffffffffffffffffffffffffffffffffffff1673ffffffffffffffffffffffffffffffffffffffff168152602001908152602001600020819055508160026000828254611254919061193c565b92505081905550600073ffffffffffffffffffffffffffffffffffffffff168373ffffffffffffffffffffffffffffffffffffffff167fddf252ad1be2c89b69c2b068fc378daa952ba7f163c4a11628f55a4df523b3ef846040516112b99190611863565b60405180910390a36112cd836000846112d7565b505050565b505050565b505050565b6000813590506112eb81611e1c565b92915050565b60008135905061130081611e33565b92915050565b60008135905061131581611e4a565b92915050565b60008135905061132a81611e61565b92915050565b60006020828403121561134257600080fd5b6000611350848285016112dc565b91505092915050565b60006020828403121561136b57600080fd5b6000611379848285016112f1565b91505092915050565b6000806040838503121561139557600080fd5b60006113a3858286016112dc565b92505060206113b4858286016112dc565b9150509250929050565b6000806000606084860312156113d357600080fd5b60006113e1868287016112dc565b93505060206113f2868287016112dc565b92505060406114038682870161131b565b9150509250925092565b6000806040838503121561142057600080fd5b600061142e858286016112dc565b925050602061143f8582860161131b565b9150509250929050565b60006020828403121561145b57600080fd5b600061146984828501611306565b91505092915050565b61147b81611970565b82525050565b61148a81611994565b82525050565b600061149b82611899565b6114a581856118a4565b93506114b58185602086016119d7565b6114be81611ac9565b840191505092915050565b60006114d66023836118a4565b91506114e182611ada565b604082019050919050565b60006114f96022836118a4565b915061150482611b29565b604082019050919050565b600061151c6026836118a4565b915061152782611b78565b604082019050919050565b600061153f6022836118a4565b915061154a82611bc7565b604082019050919050565b6000611562601d836118a4565b915061156d82611c16565b602082019050919050565b60006115856026836118a4565b915061159082611c3f565b604082019050919050565b60006115a86020836118a4565b91506115b382611c8e565b602082019050919050565b60006115cb6021836118a4565b91506115d682611cb7565b604082019050919050565b60006115ee6025836118a4565b91506115f982611d06565b604082019050919050565b6000611611600f836118a4565b915061161c82611d55565b602082019050919050565b60006116346024836118a4565b915061163f82611d7e565b604082019050919050565b60006116576025836118a4565b915061166282611dcd565b604082019050919050565b611676816119c0565b82525050565b611685816119ca565b82525050565b60006020820190506116a06000830184611472565b92915050565b60006020820190506116bb6000830184611481565b92915050565b600060208201905081810360008301526116db8184611490565b905092915050565b600060208201905081810360008301526116fc816114c9565b9050919050565b6000602082019050818103600083015261171c816114ec565b9050919050565b6000602082019050818103600083015261173c8161150f565b9050919050565b6000602082019050818103600083015261175c81611532565b9050919050565b6000602082019050818103600083015261177c81611555565b9050919050565b6000602082019050818103600083015261179c81611578565b9050919050565b600060208201905081810360008301526117bc8161159b565b9050919050565b600060208201905081810360008301526117dc816115be565b9050919050565b600060208201905081810360008301526117fc816115e1565b9050919050565b6000602082019050818103600083015261181c81611604565b9050919050565b6000602082019050818103600083015261183c81611627565b9050919050565b6000602082019050818103600083015261185c8161164a565b9050919050565b6000602082019050611878600083018461166d565b92915050565b6000602082019050611893600083018461167c565b92915050565b600081519050919050565b600082825260208201905092915050565b60006118c0826119c0565b91506118cb836119c0565b9250827fffffffffffffffffffffffffffffffffffffffffffffffffffffffffffffffff03821115611900576118ff611a3c565b5b828201905092915050565b6000611916826119c0565b9150611921836119c0565b92508261193157611930611a6b565b5b828204905092915050565b6000611947826119c0565b9150611952836119c0565b92508282101561196557611964611a3c565b5b828203905092915050565b600061197b826119a0565b9050919050565b600061198d826119a0565b9050919050565b60008115159050919050565b600073ffffffffffffffffffffffffffffffffffffffff82169050919050565b6000819050919050565b600060ff82169050919050565b60005b838110156119f55780820151818401526020810190506119da565b83811115611a04576000848401525b50505050565b60006002820490506001821680611a2257607f821691505b60208210811415611a3657611a35611a9a565b5b50919050565b7f4e487b7100000000000000000000000000000000000000000000000000000000600052601160045260246000fd5b7f4e487b7100000000000000000000000000000000000000000000000000000000600052601260045260246000fd5b7f4e487b7100000000000000000000000000000000000000000000000000000000600052602260045260246000fd5b6000601f19601f8301169050919050565b7f45524332303a207472616e7366657220746f20746865207a65726f206164647260008201527f6573730000000000000000000000000000000000000000000000000000000000602082015250565b7f45524332303a206275726e20616d6f756e7420657863656564732062616c616e60008201527f6365000000000000000000000000000000000000000000000000000000000000602082015250565b7f4f776e61626c653a206e6577206f776e657220697320746865207a65726f206160008201527f6464726573730000000000000000000000000000000000000000000000000000602082015250565b7f45524332303a20617070726f766520746f20746865207a65726f20616464726560008201527f7373000000000000000000000000000000000000000000000000000000000000602082015250565b7f45524332303a20696e73756666696369656e7420616c6c6f77616e6365000000600082015250565b7f45524332303a207472616e7366657220616d6f756e742065786365656473206260008201527f616c616e63650000000000000000000000000000000000000000000000000000602082015250565b7f4f776e61626c653a2063616c6c6572206973206e6f7420746865206f776e6572600082015250565b7f45524332303a206275726e2066726f6d20746865207a65726f2061646472657360008201527f7300000000000000000000000000000000000000000000000000000000000000602082015250565b7f45524332303a207472616e736665722066726f6d20746865207a65726f20616460008201527f6472657373000000000000000000000000000000000000000000000000000000602082015250565b7f496e76616c696420416464726573730000000000000000000000000000000000600082015250565b7f45524332303a20617070726f76652066726f6d20746865207a65726f2061646460008201527f7265737300000000000000000000000000000000000000000000000000000000602082015250565b7f45524332303a2064656372656173656420616c6c6f77616e63652062656c6f7760008201527f207a65726f000000000000000000000000000000000000000000000000000000602082015250565b611e2581611970565b8114611e3057600080fd5b50565b611e3c81611982565b8114611e4757600080fd5b50565b611e5381611994565b8114611e5e57600080fd5b50565b611e6a816119c0565b8114611e7557600080fd5b5056fea2646970667358221220fb345f015fce08ee3d02c341b8b599adb2fd99bafc17ebcfde1c38539d2d963764736f6c63430008040033",
  "linkReferences": {},
  "deployedLinkReferences": {}
}