{
  "_format": "hh-sol-artifact-1",
  "contractName": "MoonFomoV3",
  "sourceName": "contracts/MoonFomoV3.sol",
  "abi": [
    {
      "inputs": [
        {
          "internalType": "address payable",
          "name": "owner_",
          "type": "address"
        },
        {
          "internalType": "address payable",
          "name": "_moondayTokenAddress",
          "type": "address"
        }
      ],
      "stateMutability": "nonpayable",
      "type": "constructor"
    },
    {
      "anonymous": false,
      "inputs": [
        {
          "indexed": false,
          "internalType": "uint256",
          "name": "round",
          "type": "uint256"
        },
        {
          "indexed": false,
          "internalType": "address",
          "name": "claimant",
          "type": "address"
        },
        {
          "indexed": false,
          "internalType": "uint256",
          "name": "dividendAmount",
          "type": "uint256"
        }
      ],
      "name": "DividendClaimed",
      "type": "event"
    },
    {
      "anonymous": false,
      "inputs": [
        {
          "indexed": true,
          "internalType": "address",
          "name": "previousOwner",
          "type": "address"
        },
        {
          "indexed": true,
          "internalType": "address",
          "name": "newOwner",
          "type": "address"
        }
      ],
      "name": "OwnershipTransferred",
      "type": "event"
    },
    {
      "anonymous": false,
      "inputs": [
        {
          "indexed": false,
          "internalType": "uint256",
          "name": "round",
          "type": "uint256"
        },
        {
          "indexed": false,
          "internalType": "uint256",
          "name": "newJackpot",
          "type": "uint256"
        }
      ],
      "name": "RoundAddedTokens",
      "type": "event"
    },
    {
      "anonymous": false,
      "inputs": [
        {
          "indexed": false,
          "internalType": "uint256",
          "name": "round",
          "type": "uint256"
        },
        {
          "indexed": false,
          "internalType": "uint256",
          "name": "jackpot",
          "type": "uint256"
        },
        {
          "indexed": false,
          "internalType": "uint256",
          "name": "tickets",
          "type": "uint256"
        }
      ],
      "name": "RoundEnded",
      "type": "event"
    },
    {
      "anonymous": false,
      "inputs": [
        {
          "indexed": false,
          "internalType": "uint256",
          "name": "round",
          "type": "uint256"
        },
        {
          "indexed": false,
          "internalType": "uint256",
          "name": "endingTime",
          "type": "uint256"
        }
      ],
      "name": "RoundStarted",
      "type": "event"
    },
    {
      "anonymous": false,
      "inputs": [
        {
          "indexed": false,
          "internalType": "address",
          "name": "buyer",
          "type": "address"
        },
        {
          "indexed": false,
          "internalType": "uint256",
          "name": "ticketNumber",
          "type": "uint256"
        },
        {
          "indexed": false,
          "internalType": "uint256",
          "name": "ticketPrice",
          "type": "uint256"
        }
      ],
      "name": "TicketBought",
      "type": "event"
    },
    {
      "anonymous": false,
      "inputs": [
        {
          "indexed": false,
          "internalType": "uint256",
          "name": "round",
          "type": "uint256"
        },
        {
          "indexed": false,
          "internalType": "address",
          "name": "buyer",
          "type": "address"
        },
        {
          "indexed": false,
          "internalType": "uint256",
          "name": "claimAmount",
          "type": "uint256"
        }
      ],
      "name": "TicketClaimed",
      "type": "event"
    },
    {
      "anonymous": false,
      "inputs": [
        {
          "indexed": false,
          "internalType": "address",
          "name": "seller",
          "type": "address"
        },
        {
          "indexed": false,
          "internalType": "uint256",
          "name": "ticketNumber",
          "type": "uint256"
        },
        {
          "indexed": false,
          "internalType": "uint256",
          "name": "ticketPrice",
          "type": "uint256"
        }
      ],
      "name": "TicketSold",
      "type": "event"
    },
    {
      "inputs": [],
      "name": "_owner",
      "outputs": [
        {
          "internalType": "address payable",
          "name": "",
          "type": "address"
        }
      ],
      "stateMutability": "view",
      "type": "function"
    },
    {
      "inputs": [
        {
          "internalType": "uint256",
          "name": "_amount",
          "type": "uint256"
        }
      ],
      "name": "addTokensToRound",
      "outputs": [],
      "stateMutability": "payable",
      "type": "function"
    },
    {
      "inputs": [
        {
          "internalType": "uint256",
          "name": "_amount",
          "type": "uint256"
        }
      ],
      "name": "buyPrice",
      "outputs": [
        {
          "internalType": "uint256",
          "name": "",
          "type": "uint256"
        }
      ],
      "stateMutability": "view",
      "type": "function"
    },
    {
      "inputs": [
        {
          "internalType": "uint256",
          "name": "_amount",
          "type": "uint256"
        }
      ],
      "name": "buyTicket",
      "outputs": [
        {
          "internalType": "uint256",
          "name": "",
          "type": "uint256"
        }
      ],
      "stateMutability": "payable",
      "type": "function"
    },
    {
      "inputs": [
        {
          "internalType": "uint256",
          "name": "_round",
          "type": "uint256"
        },
        {
          "internalType": "address",
          "name": "_ticketHolder",
          "type": "address"
        }
      ],
      "name": "calcDividends",
      "outputs": [
        {
          "internalType": "uint256",
          "name": "totalDividends",
          "type": "uint256"
        }
      ],
      "stateMutability": "view",
      "type": "function"
    },
    {
      "inputs": [
        {
          "internalType": "uint256",
          "name": "_round",
          "type": "uint256"
        },
        {
          "internalType": "address",
          "name": "_ticketHolder",
          "type": "address"
        }
      ],
      "name": "calcPayout",
      "outputs": [
        {
          "internalType": "uint256",
          "name": "totalClaim",
          "type": "uint256"
        }
      ],
      "stateMutability": "view",
      "type": "function"
    },
    {
      "inputs": [
        {
          "internalType": "uint256",
          "name": "_amount",
          "type": "uint256"
        }
      ],
      "name": "claimDividends",
      "outputs": [],
      "stateMutability": "nonpayable",
      "type": "function"
    },
    {
      "inputs": [
        {
          "internalType": "uint256",
          "name": "_round",
          "type": "uint256"
        }
      ],
      "name": "claimPayout",
      "outputs": [],
      "stateMutability": "nonpayable",
      "type": "function"
    },
    {
      "inputs": [],
      "name": "endRound",
      "outputs": [],
      "stateMutability": "nonpayable",
      "type": "function"
    },
    {
      "inputs": [
        {
          "internalType": "uint256",
          "name": "_round",
          "type": "uint256"
        },
        {
          "internalType": "address",
          "name": "_user",
          "type": "address"
        }
      ],
      "name": "getClaimList",
      "outputs": [
        {
          "internalType": "uint256",
          "name": "",
          "type": "uint256"
        }
      ],
      "stateMutability": "view",
      "type": "function"
    },
    {
      "inputs": [
        {
          "internalType": "uint256",
          "name": "_round",
          "type": "uint256"
        },
        {
          "internalType": "address",
          "name": "_user",
          "type": "address"
        }
      ],
      "name": "getReclaim",
      "outputs": [
        {
          "internalType": "uint256",
          "name": "",
          "type": "uint256"
        }
      ],
      "stateMutability": "view",
      "type": "function"
    },
    {
      "inputs": [
        {
          "internalType": "uint256",
          "name": "_round",
          "type": "uint256"
        },
        {
          "internalType": "uint256",
          "name": "_ticketIndex",
          "type": "uint256"
        }
      ],
      "name": "getTicketOwner",
      "outputs": [
        {
          "internalType": "address",
          "name": "",
          "type": "address"
        }
      ],
      "stateMutability": "view",
      "type": "function"
    },
    {
      "inputs": [
        {
          "internalType": "uint256",
          "name": "_round",
          "type": "uint256"
        },
        {
          "internalType": "address",
          "name": "_user",
          "type": "address"
        }
      ],
      "name": "getTicketsOwned",
      "outputs": [
        {
          "internalType": "uint256",
          "name": "",
          "type": "uint256"
        }
      ],
      "stateMutability": "view",
      "type": "function"
    },
    {
      "inputs": [],
      "name": "hoursForRound",
      "outputs": [
        {
          "internalType": "uint256",
          "name": "",
          "type": "uint256"
        }
      ],
      "stateMutability": "view",
      "type": "function"
    },
    {
      "inputs": [
        {
          "internalType": "uint256",
          "name": "_amount",
          "type": "uint256"
        }
      ],
      "name": "initRound",
      "outputs": [],
      "stateMutability": "payable",
      "type": "function"
    },
    {
      "inputs": [
        {
          "internalType": "uint256",
          "name": "",
          "type": "uint256"
        }
      ],
      "name": "jackpotClaimed",
      "outputs": [
        {
          "internalType": "uint256",
          "name": "",
          "type": "uint256"
        }
      ],
      "stateMutability": "view",
      "type": "function"
    },
    {
      "inputs": [],
      "name": "maxlatestholders",
      "outputs": [
        {
          "internalType": "uint256",
          "name": "",
          "type": "uint256"
        }
      ],
      "stateMutability": "view",
      "type": "function"
    },
    {
      "inputs": [],
      "name": "owner",
      "outputs": [
        {
          "internalType": "address",
          "name": "",
          "type": "address"
        }
      ],
      "stateMutability": "view",
      "type": "function"
    },
    {
      "inputs": [
        {
          "internalType": "uint256",
          "name": "_amount",
          "type": "uint256"
        }
      ],
      "name": "reinvestDividends",
      "outputs": [
        {
          "internalType": "uint256",
          "name": "",
          "type": "uint256"
        }
      ],
      "stateMutability": "nonpayable",
      "type": "function"
    },
    {
      "inputs": [],
      "name": "renounceOwnership",
      "outputs": [],
      "stateMutability": "nonpayable",
      "type": "function"
    },
    {
      "inputs": [],
      "name": "roundCount",
      "outputs": [
        {
          "internalType": "uint256",
          "name": "",
          "type": "uint256"
        }
      ],
      "stateMutability": "view",
      "type": "function"
    },
    {
      "inputs": [
        {
          "internalType": "uint256",
          "name": "",
          "type": "uint256"
        }
      ],
      "name": "rounds",
      "outputs": [
        {
          "internalType": "uint256",
          "name": "timer",
          "type": "uint256"
        },
        {
          "internalType": "uint256",
          "name": "ticketCount",
          "type": "uint256"
        },
        {
          "internalType": "uint256",
          "name": "jackpot",
          "type": "uint256"
        },
        {
          "internalType": "uint256",
          "name": "holderPool",
          "type": "uint256"
        },
        {
          "internalType": "bool",
          "name": "ended",
          "type": "bool"
        },
        {
          "internalType": "address payable",
          "name": "maxticketsholder",
          "type": "address"
        }
      ],
      "stateMutability": "view",
      "type": "function"
    },
    {
      "inputs": [],
      "name": "secondsIncrement",
      "outputs": [
        {
          "internalType": "uint256",
          "name": "",
          "type": "uint256"
        }
      ],
      "stateMutability": "view",
      "type": "function"
    },
    {
      "inputs": [
        {
          "internalType": "uint256",
          "name": "_amount",
          "type": "uint256"
        }
      ],
      "name": "sellPrice",
      "outputs": [
        {
          "internalType": "uint256",
          "name": "",
          "type": "uint256"
        }
      ],
      "stateMutability": "view",
      "type": "function"
    },
    {
      "inputs": [
        {
          "internalType": "uint256",
          "name": "_amount",
          "type": "uint256"
        }
      ],
      "name": "sellTicket",
      "outputs": [
        {
          "internalType": "uint256",
          "name": "",
          "type": "uint256"
        }
      ],
      "stateMutability": "payable",
      "type": "function"
    },
    {
      "inputs": [
        {
          "internalType": "uint256",
          "name": "_hours",
          "type": "uint256"
        }
      ],
      "name": "setHoursForRound",
      "outputs": [],
      "stateMutability": "nonpayable",
      "type": "function"
    },
    {
      "inputs": [
        {
          "internalType": "uint256",
          "name": "_seconds",
          "type": "uint256"
        }
      ],
      "name": "setIncrementSeconds",
      "outputs": [],
      "stateMutability": "nonpayable",
      "type": "function"
    },
    {
      "inputs": [
        {
          "internalType": "address",
          "name": "newOwner",
          "type": "address"
        }
      ],
      "name": "transferOwnership",
      "outputs": [],
      "stateMutability": "nonpayable",
      "type": "function"
    }
  ],
  "bytecode": "0x60806040526006600355600a6004556103e86005553480156200002157600080fd5b5060405162003b6438038062003b648339818101604052810190620000479190620001d4565b620000676200005b620000f160201b60201c565b620000f960201b60201c565b81600660006101000a81548173ffffffffffffffffffffffffffffffffffffffff021916908373ffffffffffffffffffffffffffffffffffffffff16021790555080600160006101000a81548173ffffffffffffffffffffffffffffffffffffffff021916908373ffffffffffffffffffffffffffffffffffffffff160217905550505062000263565b600033905090565b60008060009054906101000a900473ffffffffffffffffffffffffffffffffffffffff169050816000806101000a81548173ffffffffffffffffffffffffffffffffffffffff021916908373ffffffffffffffffffffffffffffffffffffffff1602179055508173ffffffffffffffffffffffffffffffffffffffff168173ffffffffffffffffffffffffffffffffffffffff167f8be0079c531659141344cd1fd0a4f28419497f9722a3daafe3b4186f6b6457e060405160405180910390a35050565b600081519050620001ce8162000249565b92915050565b60008060408385031215620001e857600080fd5b6000620001f885828601620001bd565b92505060206200020b85828601620001bd565b9150509250929050565b6000620002228262000229565b9050919050565b600073ffffffffffffffffffffffffffffffffffffffff82169050919050565b620002548162000215565b81146200026057600080fd5b50565b6138f180620002736000396000f3fe6080604052600436106101b75760003560e01c8063911e279c116100ec578063c4a76c401161008a578063f192866a11610064578063f192866a14610646578063f2fde38b14610676578063f3e375711461069f578063f7746068146106ca576101b7565b8063c4a76c40146105a3578063c4dbf622146105e0578063cb197eb21461061d576101b7565b8063b8133567116100c6578063b8133567146104c3578063bc0ca73414610500578063bd7047c41461053d578063c178c2f914610566576101b7565b8063911e279c1461041e578063b2bdfa7b1461045b578063b2c03f3f14610486576101b7565b8063689389391161015957806385ed4c8e1161013357806385ed4c8e1461036c5780638a69614e146103885780638c65c81f146103b15780638da5cb5b146103f3576101b7565b80636893893914610322578063715018a61461033e578063749aa2d914610355576101b7565b80635f773d7f116101955780635f773d7f1461024f57806363471dbf1461028c57806366abfdec146102b557806367dd74ca146102f2576101b7565b8063121b73e7146101bc578063127f0b3f146101e757806341a3bffc14610212575b600080fd5b3480156101c857600080fd5b506101d16106f5565b6040516101de919061332d565b60405180910390f35b3480156101f357600080fd5b506101fc6106fb565b604051610209919061332d565b60405180910390f35b34801561021e57600080fd5b5061023960048036038101906102349190612ecb565b610701565b604051610246919061332d565b60405180910390f35b34801561025b57600080fd5b5061027660048036038101906102719190612f07565b61075f565b6040516102839190613100565b60405180910390f35b34801561029857600080fd5b506102b360048036038101906102ae9190612ea2565b6107b1565b005b3480156102c157600080fd5b506102dc60048036038101906102d79190612ecb565b610837565b6040516102e9919061332d565b60405180910390f35b61030c60048036038101906103079190612ea2565b6109bb565b604051610319919061332d565b60405180910390f35b61033c60048036038101906103379190612ea2565b61129a565b005b34801561034a57600080fd5b506103536114ff565b005b34801561036157600080fd5b5061036a611587565b005b61038660048036038101906103819190612ea2565b611cc5565b005b34801561039457600080fd5b506103af60048036038101906103aa9190612ea2565b611f21565b005b3480156103bd57600080fd5b506103d860048036038101906103d39190612ea2565b6121d5565b6040516103ea969594939291906133df565b60405180910390f35b3480156103ff57600080fd5b5061040861223e565b6040516104159190613100565b60405180910390f35b34801561042a57600080fd5b5061044560048036038101906104409190612ea2565b612267565b604051610452919061332d565b60405180910390f35b34801561046757600080fd5b5061047061231f565b60405161047d919061311b565b60405180910390f35b34801561049257600080fd5b506104ad60048036038101906104a89190612ecb565b612345565b6040516104ba919061332d565b60405180910390f35b3480156104cf57600080fd5b506104ea60048036038101906104e59190612ecb565b6123e8565b6040516104f7919061332d565b60405180910390f35b34801561050c57600080fd5b5061052760048036038101906105229190612ea2565b612446565b604051610534919061332d565b60405180910390f35b34801561054957600080fd5b50610564600480360381019061055f9190612ea2565b61245e565b005b34801561057257600080fd5b5061058d60048036038101906105889190612ecb565b612608565b60405161059a919061332d565b60405180910390f35b3480156105af57600080fd5b506105ca60048036038101906105c59190612ea2565b612666565b6040516105d7919061332d565b60405180910390f35b3480156105ec57600080fd5b5061060760048036038101906106029190612ea2565b61278b565b604051610614919061332d565b60405180910390f35b34801561062957600080fd5b50610644600480360381019061063f9190612ea2565b612843565b005b610660600480360381019061065b9190612ea2565b6128d6565b60405161066d919061332d565b60405180910390f35b34801561068257600080fd5b5061069d60048036038101906106989190612e50565b612bb9565b005b3480156106ab57600080fd5b506106b4612cb1565b6040516106c1919061332d565b60405180910390f35b3480156106d657600080fd5b506106df612cb7565b6040516106ec919061332d565b60405180910390f35b60035481565b60025481565b60006007600084815260200190815260200160002060060160008373ffffffffffffffffffffffffffffffffffffffff1673ffffffffffffffffffffffffffffffffffffffff16815260200190815260200160002054905092915050565b600060076000848152602001908152602001600020600701600083815260200190815260200160002060009054906101000a900473ffffffffffffffffffffffffffffffffffffffff16905092915050565b6107b9612cbd565b73ffffffffffffffffffffffffffffffffffffffff166107d761223e565b73ffffffffffffffffffffffffffffffffffffffff161461082d576040517f08c379a0000000000000000000000000000000000000000000000000000000008152600401610824906132ad565b60405180910390fd5b8060048190555050565b600060025483111561087e576040517f08c379a00000000000000000000000000000000000000000000000000000000081526004016108759061326d565b60405180910390fd5b6000600760008581526020019081526020016000206001015414156108a657600090506109b5565b61094a600760008581526020019081526020016000206001015461093c60076000878152602001908152602001600020600301546007600088815260200190815260200160002060040160008773ffffffffffffffffffffffffffffffffffffffff1673ffffffffffffffffffffffffffffffffffffffff16815260200190815260200160002054612cc590919063ffffffff16565b612cdb90919063ffffffff16565b90506109b26007600085815260200190815260200160002060060160008473ffffffffffffffffffffffffffffffffffffffff1673ffffffffffffffffffffffffffffffffffffffff1681526020019081526020016000205482612cf190919063ffffffff16565b90505b92915050565b600060076000600254815260200190815260200160002060080160009054906101000a900460ff1615610a23576040517f08c379a0000000000000000000000000000000000000000000000000000000008152600401610a1a906131ed565b60405180910390fd5b60008211610a66576040517f08c379a0000000000000000000000000000000000000000000000000000000008152600401610a5d9061324d565b60405180910390fd5b6000610a718361278b565b9050600160009054906101000a900473ffffffffffffffffffffffffffffffffffffffff1673ffffffffffffffffffffffffffffffffffffffff166323b872dd3330846040518463ffffffff1660e01b8152600401610ad293929190613136565b602060405180830381600087803b158015610aec57600080fd5b505af1158015610b00573d6000803e3d6000fd5b505050506040513d601f19601f82011682018060405250810190610b249190612e79565b50610b4c6064610b3e601484612cc590919063ffffffff16565b612cdb90919063ffffffff16565b6007600060025481526020019081526020016000206002016000828254610b739190613451565b92505081905550610ba16064610b93600a84612cc590919063ffffffff16565b612cdb90919063ffffffff16565b6007600060025481526020019081526020016000206003016000828254610bc89190613451565b92505081905550610c1a610be6600a83612cdb90919063ffffffff16565b610c0c610bfd600585612cdb90919063ffffffff16565b84612cf190919063ffffffff16565b612cf190919063ffffffff16565b60076000600254815260200190815260200160002060050160003373ffffffffffffffffffffffffffffffffffffffff1673ffffffffffffffffffffffffffffffffffffffff1681526020019081526020016000206000828254610c7e9190613451565b925050819055508260076000600254815260200190815260200160002060040160003373ffffffffffffffffffffffffffffffffffffffff1673ffffffffffffffffffffffffffffffffffffffff1681526020019081526020016000206000828254610cea9190613451565b9250508190555060005b83811015610dbd5733600760006002548152602001908152602001600020600701600060076000600254815260200190815260200160002060010154815260200190815260200160002060006101000a81548173ffffffffffffffffffffffffffffffffffffffff021916908373ffffffffffffffffffffffffffffffffffffffff1602179055506007600060025481526020019081526020016000206001016000815480929190610da5906135c0565b91905055508080610db5906135c0565b915050610cf4565b50600073ffffffffffffffffffffffffffffffffffffffff1660076000600254815260200190815260200160002060080160019054906101000a900473ffffffffffffffffffffffffffffffffffffffff1673ffffffffffffffffffffffffffffffffffffffff161480610f125750600760006002548152602001908152602001600020600401600060076000600254815260200190815260200160002060080160019054906101000a900473ffffffffffffffffffffffffffffffffffffffff1673ffffffffffffffffffffffffffffffffffffffff1673ffffffffffffffffffffffffffffffffffffffff1681526020019081526020016000205460076000600254815260200190815260200160002060040160003373ffffffffffffffffffffffffffffffffffffffff1673ffffffffffffffffffffffffffffffffffffffff16815260200190815260200160002054115b15610f6f573360076000600254815260200190815260200160002060080160016101000a81548173ffffffffffffffffffffffffffffffffffffffff021916908373ffffffffffffffffffffffffffffffffffffffff1602179055505b600354600760006002548152602001908152602001600020600901805490501061117c5760005b600160076000600254815260200190815260200160002060090180549050610fbe9190613532565b8110156110f757600760006002548152602001908152602001600020600901600182610fea9190613451565b81548110611021577f4e487b7100000000000000000000000000000000000000000000000000000000600052603260045260246000fd5b9060005260206000200160009054906101000a900473ffffffffffffffffffffffffffffffffffffffff16600760006002548152602001908152602001600020600901828154811061109c577f4e487b7100000000000000000000000000000000000000000000000000000000600052603260045260246000fd5b9060005260206000200160006101000a81548173ffffffffffffffffffffffffffffffffffffffff021916908373ffffffffffffffffffffffffffffffffffffffff16021790555080806110ef906135c0565b915050610f96565b50600760006002548152602001908152602001600020600901805480611146577f4e487b7100000000000000000000000000000000000000000000000000000000600052603160045260246000fd5b6001900381819060005260206000200160006101000a81549073ffffffffffffffffffffffffffffffffffffffff021916905590555b600760006002548152602001908152602001600020600901339080600181540180825580915050600190039060005260206000200160009091909190916101000a81548173ffffffffffffffffffffffffffffffffffffffff021916908373ffffffffffffffffffffffffffffffffffffffff160217905550600554600760006002548152602001908152602001600020600001600082825461121f9190613451565b925050819055507f97fac0ce6558f4accbb4696915809c0ef7023ffe7ba9454e94d49fb652aae1d533600760006002548152602001908152602001600020600101548360405161127193929190613196565b60405180910390a160076000600254815260200190815260200160002060010154915050919050565b6112a2612cbd565b73ffffffffffffffffffffffffffffffffffffffff166112c061223e565b73ffffffffffffffffffffffffffffffffffffffff1614611316576040517f08c379a000000000000000000000000000000000000000000000000000000000815260040161130d906132ad565b60405180910390fd5b60006002541480611349575060076000600254815260200190815260200160002060080160009054906101000a900460ff165b611388576040517f08c379a000000000000000000000000000000000000000000000000000000000815260040161137f906131cd565b60405180910390fd5b6002600081548092919061139b906135c0565b9190505550600160009054906101000a900473ffffffffffffffffffffffffffffffffffffffff1673ffffffffffffffffffffffffffffffffffffffff166323b872dd3330846040518463ffffffff1660e01b81526004016113ff93929190613136565b602060405180830381600087803b15801561141957600080fd5b505af115801561142d573d6000803e3d6000fd5b505050506040513d601f19601f820116820180604052508101906114519190612e79565b5080600760006002548152602001908152602001600020600201600082825461147a9190613451565b9250508190555061148d42600454612d07565b600760006002548152602001908152602001600020600001819055507f278844837bcf8364a705384bf3a2812901f54155bae86dea81dd52aa5b9ec0e3600254600760006002548152602001908152602001600020600001546040516114f492919061337f565b60405180910390a150565b611507612cbd565b73ffffffffffffffffffffffffffffffffffffffff1661152561223e565b73ffffffffffffffffffffffffffffffffffffffff161461157b576040517f08c379a0000000000000000000000000000000000000000000000000000000008152600401611572906132ad565b60405180910390fd5b6115856000612d37565b565b61158f612cbd565b73ffffffffffffffffffffffffffffffffffffffff166115ad61223e565b73ffffffffffffffffffffffffffffffffffffffff1614611603576040517f08c379a00000000000000000000000000000000000000000000000000000000081526004016115fa906132ad565b60405180910390fd5b60076000600254815260200190815260200160002060080160009054906101000a900460ff1615611669576040517f08c379a0000000000000000000000000000000000000000000000000000000008152600401611660906131ed565b60405180910390fd5b60006116aa606461169c602860076000600254815260200190815260200160002060020154612cc590919063ffffffff16565b612cdb90919063ffffffff16565b905060006116d98260076000600254815260200190815260200160002060020154612cf190919063ffffffff16565b905061177b600760006002548152602001908152602001600020600501600060076000600254815260200190815260200160002060080160019054906101000a900473ffffffffffffffffffffffffffffffffffffffff1673ffffffffffffffffffffffffffffffffffffffff1673ffffffffffffffffffffffffffffffffffffffff1681526020019081526020016000205483612dfb90919063ffffffff16565b915081600760006002548152602001908152602001600020600501600060076000600254815260200190815260200160002060080160019054906101000a900473ffffffffffffffffffffffffffffffffffffffff1673ffffffffffffffffffffffffffffffffffffffff1673ffffffffffffffffffffffffffffffffffffffff1681526020019081526020016000208190555060008060035467ffffffffffffffff811115611854577f4e487b7100000000000000000000000000000000000000000000000000000000600052604160045260246000fd5b6040519080825280602002602001820160405280156118825781602001602082028036833780820191505090505b50905060005b60076000600254815260200190815260200160002060090180549050811015611aae5760076000600254815260200190815260200160002060080160019054906101000a900473ffffffffffffffffffffffffffffffffffffffff1673ffffffffffffffffffffffffffffffffffffffff16600760006002548152602001908152602001600020600901828154811061194a577f4e487b7100000000000000000000000000000000000000000000000000000000600052603260045260246000fd5b9060005260206000200160009054906101000a900473ffffffffffffffffffffffffffffffffffffffff1673ffffffffffffffffffffffffffffffffffffffff1614611a9b5760076000600254815260200190815260200160002060090181815481106119e0577f4e487b7100000000000000000000000000000000000000000000000000000000600052603260045260246000fd5b9060005260206000200160009054906101000a900473ffffffffffffffffffffffffffffffffffffffff16828481518110611a44577f4e487b7100000000000000000000000000000000000000000000000000000000600052603260045260246000fd5b602002602001019073ffffffffffffffffffffffffffffffffffffffff16908173ffffffffffffffffffffffffffffffffffffffff16815250508280611a89906135c0565b9350506003548310611a9a57611aae565b5b8080611aa6906135c0565b915050611888565b5060005b82811015611c2057611b74611ad08486612cdb90919063ffffffff16565b6007600060025481526020019081526020016000206005016000858581518110611b23577f4e487b7100000000000000000000000000000000000000000000000000000000600052603260045260246000fd5b602002602001015173ffffffffffffffffffffffffffffffffffffffff1673ffffffffffffffffffffffffffffffffffffffff16815260200190815260200160002054612dfb90919063ffffffff16565b6007600060025481526020019081526020016000206005016000848481518110611bc7577f4e487b7100000000000000000000000000000000000000000000000000000000600052603260045260246000fd5b602002602001015173ffffffffffffffffffffffffffffffffffffffff1673ffffffffffffffffffffffffffffffffffffffff168152602001908152602001600020819055508080611c18906135c0565b915050611ab2565b50600160076000600254815260200190815260200160002060080160006101000a81548160ff0219169083151502179055507fc5285db7d8a9c3a0ce0e8982ff9a84fe8df355101d9545735558c69efb4aad576002546007600060025481526020019081526020016000206002015460076000600254815260200190815260200160002060010154604051611cb7939291906133a8565b60405180910390a150505050565b611ccd612cbd565b73ffffffffffffffffffffffffffffffffffffffff16611ceb61223e565b73ffffffffffffffffffffffffffffffffffffffff1614611d41576040517f08c379a0000000000000000000000000000000000000000000000000000000008152600401611d38906132ad565b60405180910390fd5b60076000600254815260200190815260200160002060080160009054906101000a900460ff1615611da7576040517f08c379a0000000000000000000000000000000000000000000000000000000008152600401611d9e906131ed565b60405180910390fd5b60008111611dea576040517f08c379a0000000000000000000000000000000000000000000000000000000008152600401611de19061324d565b60405180910390fd5b600160009054906101000a900473ffffffffffffffffffffffffffffffffffffffff1673ffffffffffffffffffffffffffffffffffffffff166323b872dd3330846040518463ffffffff1660e01b8152600401611e4993929190613136565b602060405180830381600087803b158015611e6357600080fd5b505af1158015611e77573d6000803e3d6000fd5b505050506040513d601f19601f82011682018060405250810190611e9b9190612e79565b50806007600060025481526020019081526020016000206002016000828254611ec49190613451565b925050819055507f6a3439d7c23fbb5021ce59f7b0ddecbd9c4527387ac18116b8d9e92e297c1c5860025460076000600254815260200190815260200160002060020154604051611f1692919061337f565b60405180910390a150565b600254811115611f66576040517f08c379a0000000000000000000000000000000000000000000000000000000008152600401611f5d9061326d565b60405180910390fd5b4260076000838152602001908152602001600020600001541080611faa57506007600082815260200190815260200160002060080160009054906101000a900460ff165b611fe9576040517f08c379a0000000000000000000000000000000000000000000000000000000008152600401611fe09061322d565b60405180910390fd5b60006007600083815260200190815260200160002060050160003373ffffffffffffffffffffffffffffffffffffffff1673ffffffffffffffffffffffffffffffffffffffff168152602001908152602001600020541161207f576040517f08c379a00000000000000000000000000000000000000000000000000000000081526004016120769061330d565b60405180910390fd5b600061208b8233612345565b905060006007600084815260200190815260200160002060050160003373ffffffffffffffffffffffffffffffffffffffff1673ffffffffffffffffffffffffffffffffffffffff16815260200190815260200160002081905550600160009054906101000a900473ffffffffffffffffffffffffffffffffffffffff1673ffffffffffffffffffffffffffffffffffffffff1663a9059cbb33836040518363ffffffff1660e01b815260040161214392919061316d565b602060405180830381600087803b15801561215d57600080fd5b505af1158015612171573d6000803e3d6000fd5b505050506040513d601f19601f820116820180604052508101906121959190612e79565b507f32f4bbf1cadf836f12eaa6b063a4012d2357ef9bfb64d52c0b752fd32612fe2a8233836040516121c993929190613348565b60405180910390a15050565b60076020528060005260406000206000915090508060000154908060010154908060020154908060030154908060080160009054906101000a900460ff16908060080160019054906101000a900473ffffffffffffffffffffffffffffffffffffffff16905086565b60008060009054906101000a900473ffffffffffffffffffffffffffffffffffffffff16905090565b600080600760006002548152602001908152602001600020600301541415612298576611c37937e08000905061231a565b60006123016122eb68056bc75e2d631000006122dd670de0b6b3a764000060076000600254815260200190815260200160002060030154612cc590919063ffffffff16565b612cdb90919063ffffffff16565b6611c37937e08000612cf190919063ffffffff16565b90506123168382612cc590919063ffffffff16565b9150505b919050565b600660009054906101000a900473ffffffffffffffffffffffffffffffffffffffff1681565b600060025483111561238c576040517f08c379a00000000000000000000000000000000000000000000000000000000081526004016123839061326d565b60405180910390fd5b6007600084815260200190815260200160002060050160008373ffffffffffffffffffffffffffffffffffffffff1673ffffffffffffffffffffffffffffffffffffffff16815260200190815260200160002054905092915050565b60006007600084815260200190815260200160002060040160008373ffffffffffffffffffffffffffffffffffffffff1673ffffffffffffffffffffffffffffffffffffffff16815260200190815260200160002054905092915050565b60086020528060005260406000206000915090505481565b8061246b60025433610837565b10156124ac576040517f08c379a00000000000000000000000000000000000000000000000000000000081526004016124a3906132cd565b60405180910390fd5b8060076000600254815260200190815260200160002060060160003373ffffffffffffffffffffffffffffffffffffffff1673ffffffffffffffffffffffffffffffffffffffff16815260200190815260200160002060008282546125119190613451565b92505081905550600160009054906101000a900473ffffffffffffffffffffffffffffffffffffffff1673ffffffffffffffffffffffffffffffffffffffff1663a9059cbb33836040518363ffffffff1660e01b815260040161257592919061316d565b602060405180830381600087803b15801561258f57600080fd5b505af11580156125a3573d6000803e3d6000fd5b505050506040513d601f19601f820116820180604052508101906125c79190612e79565b507fa1594d215a577c1905bcb0b5b186a40a0104714277441d4b2ac428c89bf7f4b160025433836040516125fd93929190613348565b60405180910390a150565b60006007600084815260200190815260200160002060050160008373ffffffffffffffffffffffffffffffffffffffff1673ffffffffffffffffffffffffffffffffffffffff16815260200190815260200160002054905092915050565b60006126718261278b565b61267d60025433610837565b10156126be576040517f08c379a00000000000000000000000000000000000000000000000000000000081526004016126b5906132cd565b60405180910390fd5b426007600060025481526020019081526020016000206000015411612718576040517f08c379a000000000000000000000000000000000000000000000000000000000815260040161270f9061328d565b60405180910390fd5b7f97fac0ce6558f4accbb4696915809c0ef7023ffe7ba9454e94d49fb652aae1d533600760006002548152602001908152602001600020600101548460405161276393929190613196565b60405180910390a1600760006002548152602001908152602001600020600101549050919050565b6000806007600060025481526020019081526020016000206003015414156127bc576611c37937e08000905061283e565b600061282561280f68056bc75e2d63100000612801670de0b6b3a764000060076000600254815260200190815260200160002060030154612cc590919063ffffffff16565b612cdb90919063ffffffff16565b6611c37937e08000612dfb90919063ffffffff16565b905061283a8382612cc590919063ffffffff16565b9150505b919050565b61284b612cbd565b73ffffffffffffffffffffffffffffffffffffffff1661286961223e565b73ffffffffffffffffffffffffffffffffffffffff16146128bf576040517f08c379a00000000000000000000000000000000000000000000000000000000081526004016128b6906132ad565b60405180910390fd5b6103e8816128cd91906134d8565b60058190555050565b600060076000600254815260200190815260200160002060080160009054906101000a900460ff161561293e576040517f08c379a0000000000000000000000000000000000000000000000000000000008152600401612935906131ed565b60405180910390fd5b8160076000600254815260200190815260200160002060040160003373ffffffffffffffffffffffffffffffffffffffff1673ffffffffffffffffffffffffffffffffffffffff1681526020019081526020016000205410156129d6576040517f08c379a00000000000000000000000000000000000000000000000000000000081526004016129cd906132ed565b60405180910390fd5b60006129e183612267565b90508260076000600254815260200190815260200160002060040160003373ffffffffffffffffffffffffffffffffffffffff1673ffffffffffffffffffffffffffffffffffffffff1681526020019081526020016000206000828254612a489190613532565b92505081905550826007600060025481526020019081526020016000206001016000828254612a779190613532565b92505081905550806007600060025481526020019081526020016000206003016000828254612aa69190613532565b92505081905550600160009054906101000a900473ffffffffffffffffffffffffffffffffffffffff1673ffffffffffffffffffffffffffffffffffffffff1663a9059cbb33836040518363ffffffff1660e01b8152600401612b0a92919061316d565b602060405180830381600087803b158015612b2457600080fd5b505af1158015612b38573d6000803e3d6000fd5b505050506040513d601f19601f82011682018060405250810190612b5c9190612e79565b507f7486e610a6d07e1419063632389e57b8c133ced5e70fea2d926ad3f99df98218336007600060025481526020019081526020016000206001015483604051612ba893929190613196565b60405180910390a180915050919050565b612bc1612cbd565b73ffffffffffffffffffffffffffffffffffffffff16612bdf61223e565b73ffffffffffffffffffffffffffffffffffffffff1614612c35576040517f08c379a0000000000000000000000000000000000000000000000000000000008152600401612c2c906132ad565b60405180910390fd5b600073ffffffffffffffffffffffffffffffffffffffff168173ffffffffffffffffffffffffffffffffffffffff161415612ca5576040517f08c379a0000000000000000000000000000000000000000000000000000000008152600401612c9c9061320d565b60405180910390fd5b612cae81612d37565b50565b60055481565b60045481565b600033905090565b60008183612cd391906134d8565b905092915050565b60008183612ce991906134a7565b905092915050565b60008183612cff9190613532565b905092915050565b6000610e1082612d1791906134d8565b83612d229190613451565b905082811015612d3157600080fd5b92915050565b60008060009054906101000a900473ffffffffffffffffffffffffffffffffffffffff169050816000806101000a81548173ffffffffffffffffffffffffffffffffffffffff021916908373ffffffffffffffffffffffffffffffffffffffff1602179055508173ffffffffffffffffffffffffffffffffffffffff168173ffffffffffffffffffffffffffffffffffffffff167f8be0079c531659141344cd1fd0a4f28419497f9722a3daafe3b4186f6b6457e060405160405180910390a35050565b60008183612e099190613451565b905092915050565b600081359050612e2081613876565b92915050565b600081519050612e358161388d565b92915050565b600081359050612e4a816138a4565b92915050565b600060208284031215612e6257600080fd5b6000612e7084828501612e11565b91505092915050565b600060208284031215612e8b57600080fd5b6000612e9984828501612e26565b91505092915050565b600060208284031215612eb457600080fd5b6000612ec284828501612e3b565b91505092915050565b60008060408385031215612ede57600080fd5b6000612eec85828601612e3b565b9250506020612efd85828601612e11565b9150509250929050565b60008060408385031215612f1a57600080fd5b6000612f2885828601612e3b565b9250506020612f3985828601612e3b565b9150509250929050565b612f4c81613578565b82525050565b612f5b81613566565b82525050565b612f6a8161358a565b82525050565b6000612f7d601983613440565b9150612f8882613667565b602082019050919050565b6000612fa0601483613440565b9150612fab82613690565b602082019050919050565b6000612fc3602683613440565b9150612fce826136b9565b604082019050919050565b6000612fe6601083613440565b9150612ff182613708565b602082019050919050565b6000613009600e83613440565b915061301482613731565b602082019050919050565b600061302c601383613440565b91506130378261375a565b602082019050919050565b600061304f600c83613440565b915061305a82613783565b602082019050919050565b6000613072602083613440565b915061307d826137ac565b602082019050919050565b6000613095602183613440565b91506130a0826137d5565b604082019050919050565b60006130b8601483613440565b91506130c382613824565b602082019050919050565b60006130db601983613440565b91506130e68261384d565b602082019050919050565b6130fa816135b6565b82525050565b60006020820190506131156000830184612f52565b92915050565b60006020820190506131306000830184612f43565b92915050565b600060608201905061314b6000830186612f52565b6131586020830185612f52565b61316560408301846130f1565b949350505050565b60006040820190506131826000830185612f52565b61318f60208301846130f1565b9392505050565b60006060820190506131ab6000830186612f52565b6131b860208301856130f1565b6131c560408301846130f1565b949350505050565b600060208201905081810360008301526131e681612f70565b9050919050565b6000602082019050818103600083015261320681612f93565b9050919050565b6000602082019050818103600083015261322681612fb6565b9050919050565b6000602082019050818103600083015261324681612fd9565b9050919050565b6000602082019050818103600083015261326681612ffc565b9050919050565b600060208201905081810360008301526132868161301f565b9050919050565b600060208201905081810360008301526132a681613042565b9050919050565b600060208201905081810360008301526132c681613065565b9050919050565b600060208201905081810360008301526132e681613088565b9050919050565b60006020820190508181036000830152613306816130ab565b9050919050565b60006020820190508181036000830152613326816130ce565b9050919050565b600060208201905061334260008301846130f1565b92915050565b600060608201905061335d60008301866130f1565b61336a6020830185612f52565b61337760408301846130f1565b949350505050565b600060408201905061339460008301856130f1565b6133a160208301846130f1565b9392505050565b60006060820190506133bd60008301866130f1565b6133ca60208301856130f1565b6133d760408301846130f1565b949350505050565b600060c0820190506133f460008301896130f1565b61340160208301886130f1565b61340e60408301876130f1565b61341b60608301866130f1565b6134286080830185612f61565b61343560a0830184612f43565b979650505050505050565b600082825260208201905092915050565b600061345c826135b6565b9150613467836135b6565b9250827fffffffffffffffffffffffffffffffffffffffffffffffffffffffffffffffff0382111561349c5761349b613609565b5b828201905092915050565b60006134b2826135b6565b91506134bd836135b6565b9250826134cd576134cc613638565b5b828204905092915050565b60006134e3826135b6565b91506134ee836135b6565b9250817fffffffffffffffffffffffffffffffffffffffffffffffffffffffffffffffff048311821515161561352757613526613609565b5b828202905092915050565b600061353d826135b6565b9150613548836135b6565b92508282101561355b5761355a613609565b5b828203905092915050565b600061357182613596565b9050919050565b600061358382613596565b9050919050565b60008115159050919050565b600073ffffffffffffffffffffffffffffffffffffffff82169050919050565b6000819050919050565b60006135cb826135b6565b91507fffffffffffffffffffffffffffffffffffffffffffffffffffffffffffffffff8214156135fe576135fd613609565b5b600182019050919050565b7f4e487b7100000000000000000000000000000000000000000000000000000000600052601160045260246000fd5b7f4e487b7100000000000000000000000000000000000000000000000000000000600052601260045260246000fd5b7f50726576696f757320526f756e64204e6f7420456e6465642100000000000000600082015250565b7f526f756e6420616c726561647920656e64656421000000000000000000000000600082015250565b7f4f776e61626c653a206e6577206f776e657220697320746865207a65726f206160008201527f6464726573730000000000000000000000000000000000000000000000000000602082015250565b7f526f756e64204e6f7420456e6465642100000000000000000000000000000000600082015250565b7f496e76616c696420616d6f756e74000000000000000000000000000000000000600082015250565b7f496e76616c696420726f756e6420636f756e7400000000000000000000000000600082015250565b7f526f756e6420456e646564210000000000000000000000000000000000000000600082015250565b7f4f776e61626c653a2063616c6c6572206973206e6f7420746865206f776e6572600082015250565b7f496e73756666696369656e74204469766964656e647320417661696c61626c6560008201527f2100000000000000000000000000000000000000000000000000000000000000602082015250565b7f496e73756666696369656e74207469636b657473000000000000000000000000600082015250565b7f596f75204861766520416c726561647920436c61696d65642100000000000000600082015250565b61387f81613566565b811461388a57600080fd5b50565b6138968161358a565b81146138a157600080fd5b50565b6138ad816135b6565b81146138b857600080fd5b5056fea2646970667358221220aa18c2052f5f969973c9d71e4db7d2c296dfce583ba2a1064615f6b61b3d3f4364736f6c63430008040033",
  "linkReferences": {},
  "deployedLinkReferences": {}
}