{
  "_format": "hh-sol-artifact-1",
  "contractName": "MoonFomoV3",
  "sourceName": "contracts/MoonFomoV3.sol",
  "abi": [
    {
      "inputs": [
        {
          "internalType": "address payable",
          "name": "owner_",
          "type": "address"
        },
        {
          "internalType": "address payable",
          "name": "_moondayTokenAddress",
          "type": "address"
        }
      ],
      "stateMutability": "nonpayable",
      "type": "constructor"
    },
    {
      "anonymous": false,
      "inputs": [
        {
          "indexed": false,
          "internalType": "uint256",
          "name": "round",
          "type": "uint256"
        },
        {
          "indexed": false,
          "internalType": "address",
          "name": "claimant",
          "type": "address"
        },
        {
          "indexed": false,
          "internalType": "uint256",
          "name": "dividendAmount",
          "type": "uint256"
        }
      ],
      "name": "DividendClaimed",
      "type": "event"
    },
    {
      "anonymous": false,
      "inputs": [
        {
          "indexed": true,
          "internalType": "address",
          "name": "previousOwner",
          "type": "address"
        },
        {
          "indexed": true,
          "internalType": "address",
          "name": "newOwner",
          "type": "address"
        }
      ],
      "name": "OwnershipTransferred",
      "type": "event"
    },
    {
      "anonymous": false,
      "inputs": [
        {
          "indexed": false,
          "internalType": "uint256",
          "name": "round",
          "type": "uint256"
        },
        {
          "indexed": false,
          "internalType": "uint256",
          "name": "newJackpot",
          "type": "uint256"
        }
      ],
      "name": "RoundAddedTokens",
      "type": "event"
    },
    {
      "anonymous": false,
      "inputs": [
        {
          "indexed": false,
          "internalType": "uint256",
          "name": "round",
          "type": "uint256"
        },
        {
          "indexed": false,
          "internalType": "uint256",
          "name": "jackpot",
          "type": "uint256"
        },
        {
          "indexed": false,
          "internalType": "uint256",
          "name": "tickets",
          "type": "uint256"
        }
      ],
      "name": "RoundEnded",
      "type": "event"
    },
    {
      "anonymous": false,
      "inputs": [
        {
          "indexed": false,
          "internalType": "uint256",
          "name": "round",
          "type": "uint256"
        },
        {
          "indexed": false,
          "internalType": "uint256",
          "name": "endingTime",
          "type": "uint256"
        }
      ],
      "name": "RoundStarted",
      "type": "event"
    },
    {
      "anonymous": false,
      "inputs": [
        {
          "indexed": false,
          "internalType": "address",
          "name": "buyer",
          "type": "address"
        },
        {
          "indexed": false,
          "internalType": "uint256",
          "name": "ticketNumber",
          "type": "uint256"
        },
        {
          "indexed": false,
          "internalType": "uint256",
          "name": "ticketPrice",
          "type": "uint256"
        }
      ],
      "name": "TicketBought",
      "type": "event"
    },
    {
      "anonymous": false,
      "inputs": [
        {
          "indexed": false,
          "internalType": "uint256",
          "name": "round",
          "type": "uint256"
        },
        {
          "indexed": false,
          "internalType": "address",
          "name": "buyer",
          "type": "address"
        },
        {
          "indexed": false,
          "internalType": "uint256",
          "name": "claimAmount",
          "type": "uint256"
        }
      ],
      "name": "TicketClaimed",
      "type": "event"
    },
    {
      "inputs": [],
      "name": "_owner",
      "outputs": [
        {
          "internalType": "address payable",
          "name": "",
          "type": "address"
        }
      ],
      "stateMutability": "view",
      "type": "function"
    },
    {
      "inputs": [
        {
          "internalType": "uint256",
          "name": "_amount",
          "type": "uint256"
        }
      ],
      "name": "addTokensToRound",
      "outputs": [],
      "stateMutability": "payable",
      "type": "function"
    },
    {
      "inputs": [
        {
          "internalType": "uint256",
          "name": "_amount",
          "type": "uint256"
        }
      ],
      "name": "buyTicket",
      "outputs": [
        {
          "internalType": "uint256",
          "name": "",
          "type": "uint256"
        }
      ],
      "stateMutability": "payable",
      "type": "function"
    },
    {
      "inputs": [
        {
          "internalType": "uint256",
          "name": "_round",
          "type": "uint256"
        },
        {
          "internalType": "address",
          "name": "_ticketHolder",
          "type": "address"
        }
      ],
      "name": "calcDividends",
      "outputs": [
        {
          "internalType": "uint256",
          "name": "totalDividends",
          "type": "uint256"
        }
      ],
      "stateMutability": "view",
      "type": "function"
    },
    {
      "inputs": [
        {
          "internalType": "uint256",
          "name": "_round",
          "type": "uint256"
        },
        {
          "internalType": "address",
          "name": "_ticketHolder",
          "type": "address"
        }
      ],
      "name": "calcPayout",
      "outputs": [
        {
          "internalType": "uint256",
          "name": "totalClaim",
          "type": "uint256"
        }
      ],
      "stateMutability": "view",
      "type": "function"
    },
    {
      "inputs": [
        {
          "internalType": "uint256",
          "name": "_amount",
          "type": "uint256"
        }
      ],
      "name": "calcTicketCost",
      "outputs": [
        {
          "internalType": "uint256",
          "name": "",
          "type": "uint256"
        }
      ],
      "stateMutability": "view",
      "type": "function"
    },
    {
      "inputs": [
        {
          "internalType": "uint256",
          "name": "_amount",
          "type": "uint256"
        }
      ],
      "name": "claimDividends",
      "outputs": [],
      "stateMutability": "nonpayable",
      "type": "function"
    },
    {
      "inputs": [
        {
          "internalType": "uint256",
          "name": "_round",
          "type": "uint256"
        }
      ],
      "name": "claimPayout",
      "outputs": [],
      "stateMutability": "nonpayable",
      "type": "function"
    },
    {
      "inputs": [],
      "name": "dollarIncrement",
      "outputs": [
        {
          "internalType": "uint256",
          "name": "",
          "type": "uint256"
        }
      ],
      "stateMutability": "view",
      "type": "function"
    },
    {
      "inputs": [],
      "name": "endRound",
      "outputs": [],
      "stateMutability": "nonpayable",
      "type": "function"
    },
    {
      "inputs": [
        {
          "internalType": "uint256",
          "name": "_round",
          "type": "uint256"
        },
        {
          "internalType": "address",
          "name": "_user",
          "type": "address"
        }
      ],
      "name": "getClaimList",
      "outputs": [
        {
          "internalType": "uint256",
          "name": "",
          "type": "uint256"
        }
      ],
      "stateMutability": "view",
      "type": "function"
    },
    {
      "inputs": [
        {
          "internalType": "uint256",
          "name": "_round",
          "type": "uint256"
        },
        {
          "internalType": "address",
          "name": "_user",
          "type": "address"
        }
      ],
      "name": "getReclaim",
      "outputs": [
        {
          "internalType": "uint256",
          "name": "",
          "type": "uint256"
        }
      ],
      "stateMutability": "view",
      "type": "function"
    },
    {
      "inputs": [
        {
          "internalType": "uint256",
          "name": "_round",
          "type": "uint256"
        },
        {
          "internalType": "uint256",
          "name": "_ticketIndex",
          "type": "uint256"
        }
      ],
      "name": "getTicketOwner",
      "outputs": [
        {
          "internalType": "address",
          "name": "",
          "type": "address"
        }
      ],
      "stateMutability": "view",
      "type": "function"
    },
    {
      "inputs": [
        {
          "internalType": "uint256",
          "name": "_round",
          "type": "uint256"
        },
        {
          "internalType": "address",
          "name": "_user",
          "type": "address"
        }
      ],
      "name": "getTicketsOwned",
      "outputs": [
        {
          "internalType": "uint256",
          "name": "",
          "type": "uint256"
        }
      ],
      "stateMutability": "view",
      "type": "function"
    },
    {
      "inputs": [],
      "name": "hoursForRound",
      "outputs": [
        {
          "internalType": "uint256",
          "name": "",
          "type": "uint256"
        }
      ],
      "stateMutability": "view",
      "type": "function"
    },
    {
      "inputs": [
        {
          "internalType": "uint256",
          "name": "_amount",
          "type": "uint256"
        }
      ],
      "name": "initRound",
      "outputs": [],
      "stateMutability": "payable",
      "type": "function"
    },
    {
      "inputs": [],
      "name": "initialPrice",
      "outputs": [
        {
          "internalType": "uint256",
          "name": "",
          "type": "uint256"
        }
      ],
      "stateMutability": "view",
      "type": "function"
    },
    {
      "inputs": [
        {
          "internalType": "uint256",
          "name": "",
          "type": "uint256"
        }
      ],
      "name": "jackpotClaimed",
      "outputs": [
        {
          "internalType": "uint256",
          "name": "",
          "type": "uint256"
        }
      ],
      "stateMutability": "view",
      "type": "function"
    },
    {
      "inputs": [],
      "name": "maxlatestholders",
      "outputs": [
        {
          "internalType": "uint256",
          "name": "",
          "type": "uint256"
        }
      ],
      "stateMutability": "view",
      "type": "function"
    },
    {
      "inputs": [],
      "name": "owner",
      "outputs": [
        {
          "internalType": "address",
          "name": "",
          "type": "address"
        }
      ],
      "stateMutability": "view",
      "type": "function"
    },
    {
      "inputs": [
        {
          "internalType": "uint256",
          "name": "_amount",
          "type": "uint256"
        }
      ],
      "name": "reinvestDividends",
      "outputs": [
        {
          "internalType": "uint256",
          "name": "",
          "type": "uint256"
        }
      ],
      "stateMutability": "nonpayable",
      "type": "function"
    },
    {
      "inputs": [],
      "name": "renounceOwnership",
      "outputs": [],
      "stateMutability": "nonpayable",
      "type": "function"
    },
    {
      "inputs": [],
      "name": "roundCount",
      "outputs": [
        {
          "internalType": "uint256",
          "name": "",
          "type": "uint256"
        }
      ],
      "stateMutability": "view",
      "type": "function"
    },
    {
      "inputs": [
        {
          "internalType": "uint256",
          "name": "",
          "type": "uint256"
        }
      ],
      "name": "rounds",
      "outputs": [
        {
          "internalType": "uint256",
          "name": "timer",
          "type": "uint256"
        },
        {
          "internalType": "uint256",
          "name": "ticketCount",
          "type": "uint256"
        },
        {
          "internalType": "uint256",
          "name": "jackpot",
          "type": "uint256"
        },
        {
          "internalType": "uint256",
          "name": "holderPool",
          "type": "uint256"
        },
        {
          "internalType": "bool",
          "name": "ended",
          "type": "bool"
        },
        {
          "internalType": "address payable",
          "name": "maxticketsholder",
          "type": "address"
        }
      ],
      "stateMutability": "view",
      "type": "function"
    },
    {
      "inputs": [],
      "name": "secondsIncrement",
      "outputs": [
        {
          "internalType": "uint256",
          "name": "",
          "type": "uint256"
        }
      ],
      "stateMutability": "view",
      "type": "function"
    },
    {
      "inputs": [
        {
          "internalType": "uint256",
          "name": "_hours",
          "type": "uint256"
        }
      ],
      "name": "setHoursForRound",
      "outputs": [],
      "stateMutability": "nonpayable",
      "type": "function"
    },
    {
      "inputs": [
        {
          "internalType": "uint256",
          "name": "_seconds",
          "type": "uint256"
        }
      ],
      "name": "setIncrementSeconds",
      "outputs": [],
      "stateMutability": "nonpayable",
      "type": "function"
    },
    {
      "inputs": [
        {
          "internalType": "uint256",
          "name": "_initialPrice",
          "type": "uint256"
        },
        {
          "internalType": "uint256",
          "name": "_dollarIncrement",
          "type": "uint256"
        }
      ],
      "name": "setPricing",
      "outputs": [],
      "stateMutability": "nonpayable",
      "type": "function"
    },
    {
      "inputs": [
        {
          "internalType": "address",
          "name": "newOwner",
          "type": "address"
        }
      ],
      "name": "transferOwnership",
      "outputs": [],
      "stateMutability": "nonpayable",
      "type": "function"
    }
  ],
  "bytecode": "0x608060405262030d4060035565e90335fdd0006004556006600555600a6006556103e86007553480156200003257600080fd5b5060405162003753380380620037538339818101604052810190620000589190620001e5565b620000786200006c6200010260201b60201c565b6200010a60201b60201c565b81600860006101000a81548173ffffffffffffffffffffffffffffffffffffffff021916908373ffffffffffffffffffffffffffffffffffffffff16021790555080600160006101000a81548173ffffffffffffffffffffffffffffffffffffffff021916908373ffffffffffffffffffffffffffffffffffffffff160217905550505062000274565b600033905090565b60008060009054906101000a900473ffffffffffffffffffffffffffffffffffffffff169050816000806101000a81548173ffffffffffffffffffffffffffffffffffffffff021916908373ffffffffffffffffffffffffffffffffffffffff1602179055508173ffffffffffffffffffffffffffffffffffffffff168173ffffffffffffffffffffffffffffffffffffffff167f8be0079c531659141344cd1fd0a4f28419497f9722a3daafe3b4186f6b6457e060405160405180910390a35050565b600081519050620001df816200025a565b92915050565b60008060408385031215620001f957600080fd5b60006200020985828601620001ce565b92505060206200021c85828601620001ce565b9150509250929050565b600062000233826200023a565b9050919050565b600073ffffffffffffffffffffffffffffffffffffffff82169050919050565b620002658162000226565b81146200027157600080fd5b50565b6134cf80620002846000396000f3fe6080604052600436106101c25760003560e01c80638a69614e116100f7578063bd7047c411610095578063cb197eb211610064578063cb197eb21461066a578063f2fde38b14610693578063f3e37571146106bc578063f7746068146106e7576101c2565b8063bd7047c41461059e578063c178c2f9146105c7578063c4a76c4014610604578063ca05588a14610641576101c2565b8063b2bdfa7b116100d1578063b2bdfa7b146104bc578063b2c03f3f146104e7578063b813356714610524578063bc0ca73414610561576101c2565b80638a69614e146104265780638c65c81f1461044f5780638da5cb5b14610491576101c2565b806363471dbf11610164578063689389391161013e57806368938939146103c0578063715018a6146103dc578063749aa2d9146103f357806385ed4c8e1461040a576101c2565b806363471dbf1461032a57806366abfdec1461035357806367dd74ca14610390576101c2565b806325893e25116101a057806325893e2514610248578063309711561461027357806341a3bffc146102b05780635f773d7f146102ed576101c2565b8063121b73e7146101c7578063127f0b3f146101f25780631d0806ae1461021d575b600080fd5b3480156101d357600080fd5b506101dc610712565b6040516101e99190612f27565b60405180910390f35b3480156101fe57600080fd5b50610207610718565b6040516102149190612f27565b60405180910390f35b34801561022957600080fd5b5061023261071e565b60405161023f9190612f27565b60405180910390f35b34801561025457600080fd5b5061025d610724565b60405161026a9190612f27565b60405180910390f35b34801561027f57600080fd5b5061029a60048036038101906102959190612aea565b61072a565b6040516102a79190612f27565b60405180910390f35b3480156102bc57600080fd5b506102d760048036038101906102d29190612b13565b6107d0565b6040516102e49190612f27565b60405180910390f35b3480156102f957600080fd5b50610314600480360381019061030f9190612b4f565b61082e565b6040516103219190612d11565b60405180910390f35b34801561033657600080fd5b50610351600480360381019061034c9190612aea565b610880565b005b34801561035f57600080fd5b5061037a60048036038101906103759190612b13565b610906565b6040516103879190612f27565b60405180910390f35b6103aa60048036038101906103a59190612aea565b610a44565b6040516103b79190612f27565b60405180910390f35b6103da60048036038101906103d59190612aea565b611323565b005b3480156103e857600080fd5b506103f1611588565b005b3480156103ff57600080fd5b50610408611610565b005b610424600480360381019061041f9190612aea565b611cb1565b005b34801561043257600080fd5b5061044d60048036038101906104489190612aea565b611f0d565b005b34801561045b57600080fd5b5061047660048036038101906104719190612aea565b612151565b60405161048896959493929190612fd9565b60405180910390f35b34801561049d57600080fd5b506104a66121ba565b6040516104b39190612d11565b60405180910390f35b3480156104c857600080fd5b506104d16121e3565b6040516104de9190612d2c565b60405180910390f35b3480156104f357600080fd5b5061050e60048036038101906105099190612b13565b612209565b60405161051b9190612f27565b60405180910390f35b34801561053057600080fd5b5061054b60048036038101906105469190612b13565b6122e3565b6040516105589190612f27565b60405180910390f35b34801561056d57600080fd5b5061058860048036038101906105839190612aea565b612341565b6040516105959190612f27565b60405180910390f35b3480156105aa57600080fd5b506105c560048036038101906105c09190612aea565b612359565b005b3480156105d357600080fd5b506105ee60048036038101906105e99190612b13565b612503565b6040516105fb9190612f27565b60405180910390f35b34801561061057600080fd5b5061062b60048036038101906106269190612aea565b612561565b6040516106389190612f27565b60405180910390f35b34801561064d57600080fd5b5061066860048036038101906106639190612b4f565b612686565b005b34801561067657600080fd5b50610691600480360381019061068c9190612aea565b61276e565b005b34801561069f57600080fd5b506106ba60048036038101906106b59190612a98565b612801565b005b3480156106c857600080fd5b506106d16128f9565b6040516106de9190612f27565b60405180910390f35b3480156106f357600080fd5b506106fc6128ff565b6040516107099190612f27565b60405180910390f35b60055481565b60025481565b60045481565b60035481565b6000806000905060008060096000600254815260200190815260200160002060030154905060005b858110156107c457610781600354610773868561290590919063ffffffff16565b61291b90919063ffffffff16565b60045461078e919061304b565b83610799919061304b565b92506107af600a8461291b90919063ffffffff16565b935080806107bc906131f0565b915050610752565b50819350505050919050565b60006009600084815260200190815260200160002060060160008373ffffffffffffffffffffffffffffffffffffffff1673ffffffffffffffffffffffffffffffffffffffff16815260200190815260200160002054905092915050565b600060096000848152602001908152602001600020600701600083815260200190815260200160002060009054906101000a900473ffffffffffffffffffffffffffffffffffffffff16905092915050565b610888612931565b73ffffffffffffffffffffffffffffffffffffffff166108a66121ba565b73ffffffffffffffffffffffffffffffffffffffff16146108fc576040517f08c379a00000000000000000000000000000000000000000000000000000000081526004016108f390612ec7565b60405180910390fd5b8060068190555050565b6000806009600085815260200190815260200160002060010154141561092f5760009050610a3e565b6109d360096000858152602001908152602001600020600101546109c560096000878152602001908152602001600020600301546009600088815260200190815260200160002060040160008773ffffffffffffffffffffffffffffffffffffffff1673ffffffffffffffffffffffffffffffffffffffff1681526020019081526020016000205461293990919063ffffffff16565b61291b90919063ffffffff16565b9050610a3b6009600085815260200190815260200160002060060160008473ffffffffffffffffffffffffffffffffffffffff1673ffffffffffffffffffffffffffffffffffffffff168152602001908152602001600020548261294f90919063ffffffff16565b90505b92915050565b600060096000600254815260200190815260200160002060080160009054906101000a900460ff1615610aac576040517f08c379a0000000000000000000000000000000000000000000000000000000008152600401610aa390612e27565b60405180910390fd5b60008211610aef576040517f08c379a0000000000000000000000000000000000000000000000000000000008152600401610ae690612e87565b60405180910390fd5b6000610afa8361072a565b9050600160009054906101000a900473ffffffffffffffffffffffffffffffffffffffff1673ffffffffffffffffffffffffffffffffffffffff166323b872dd3330846040518463ffffffff1660e01b8152600401610b5b93929190612d70565b602060405180830381600087803b158015610b7557600080fd5b505af1158015610b89573d6000803e3d6000fd5b505050506040513d601f19601f82011682018060405250810190610bad9190612ac1565b50610bd56064610bc760148461293990919063ffffffff16565b61291b90919063ffffffff16565b6009600060025481526020019081526020016000206002016000828254610bfc919061304b565b92505081905550610c2a6064610c1c600a8461293990919063ffffffff16565b61291b90919063ffffffff16565b6009600060025481526020019081526020016000206003016000828254610c51919061304b565b92505081905550610ca3610c6f600a8361291b90919063ffffffff16565b610c95610c8660058561291b90919063ffffffff16565b8461294f90919063ffffffff16565b61294f90919063ffffffff16565b60096000600254815260200190815260200160002060050160003373ffffffffffffffffffffffffffffffffffffffff1673ffffffffffffffffffffffffffffffffffffffff1681526020019081526020016000206000828254610d07919061304b565b925050819055508260096000600254815260200190815260200160002060040160003373ffffffffffffffffffffffffffffffffffffffff1673ffffffffffffffffffffffffffffffffffffffff1681526020019081526020016000206000828254610d73919061304b565b9250508190555060005b83811015610e465733600960006002548152602001908152602001600020600701600060096000600254815260200190815260200160002060010154815260200190815260200160002060006101000a81548173ffffffffffffffffffffffffffffffffffffffff021916908373ffffffffffffffffffffffffffffffffffffffff1602179055506009600060025481526020019081526020016000206001016000815480929190610e2e906131f0565b91905055508080610e3e906131f0565b915050610d7d565b50600073ffffffffffffffffffffffffffffffffffffffff1660096000600254815260200190815260200160002060080160019054906101000a900473ffffffffffffffffffffffffffffffffffffffff1673ffffffffffffffffffffffffffffffffffffffff161480610f9b5750600960006002548152602001908152602001600020600401600060096000600254815260200190815260200160002060080160019054906101000a900473ffffffffffffffffffffffffffffffffffffffff1673ffffffffffffffffffffffffffffffffffffffff1673ffffffffffffffffffffffffffffffffffffffff1681526020019081526020016000205460096000600254815260200190815260200160002060040160003373ffffffffffffffffffffffffffffffffffffffff1673ffffffffffffffffffffffffffffffffffffffff16815260200190815260200160002054115b15610ff8573360096000600254815260200190815260200160002060080160016101000a81548173ffffffffffffffffffffffffffffffffffffffff021916908373ffffffffffffffffffffffffffffffffffffffff1602179055505b60055460096000600254815260200190815260200160002060090180549050106112055760005b600160096000600254815260200190815260200160002060090180549050611047919061312c565b81101561118057600960006002548152602001908152602001600020600901600182611073919061304b565b815481106110aa577f4e487b7100000000000000000000000000000000000000000000000000000000600052603260045260246000fd5b9060005260206000200160009054906101000a900473ffffffffffffffffffffffffffffffffffffffff166009600060025481526020019081526020016000206009018281548110611125577f4e487b7100000000000000000000000000000000000000000000000000000000600052603260045260246000fd5b9060005260206000200160006101000a81548173ffffffffffffffffffffffffffffffffffffffff021916908373ffffffffffffffffffffffffffffffffffffffff1602179055508080611178906131f0565b91505061101f565b506009600060025481526020019081526020016000206009018054806111cf577f4e487b7100000000000000000000000000000000000000000000000000000000600052603160045260246000fd5b6001900381819060005260206000200160006101000a81549073ffffffffffffffffffffffffffffffffffffffff021916905590555b600960006002548152602001908152602001600020600901339080600181540180825580915050600190039060005260206000200160009091909190916101000a81548173ffffffffffffffffffffffffffffffffffffffff021916908373ffffffffffffffffffffffffffffffffffffffff16021790555060075460096000600254815260200190815260200160002060000160008282546112a8919061304b565b925050819055507f97fac0ce6558f4accbb4696915809c0ef7023ffe7ba9454e94d49fb652aae1d53360096000600254815260200190815260200160002060010154836040516112fa93929190612dd0565b60405180910390a160096000600254815260200190815260200160002060010154915050919050565b61132b612931565b73ffffffffffffffffffffffffffffffffffffffff166113496121ba565b73ffffffffffffffffffffffffffffffffffffffff161461139f576040517f08c379a000000000000000000000000000000000000000000000000000000000815260040161139690612ec7565b60405180910390fd5b600060025414806113d2575060096000600254815260200190815260200160002060080160009054906101000a900460ff165b611411576040517f08c379a000000000000000000000000000000000000000000000000000000000815260040161140890612e07565b60405180910390fd5b60026000815480929190611424906131f0565b9190505550600160009054906101000a900473ffffffffffffffffffffffffffffffffffffffff1673ffffffffffffffffffffffffffffffffffffffff166323b872dd3330846040518463ffffffff1660e01b815260040161148893929190612d70565b602060405180830381600087803b1580156114a257600080fd5b505af11580156114b6573d6000803e3d6000fd5b505050506040513d601f19601f820116820180604052508101906114da9190612ac1565b50806009600060025481526020019081526020016000206002016000828254611503919061304b565b9250508190555061151642600654612965565b600960006002548152602001908152602001600020600001819055507f278844837bcf8364a705384bf3a2812901f54155bae86dea81dd52aa5b9ec0e36002546009600060025481526020019081526020016000206000015460405161157d929190612f79565b60405180910390a150565b611590612931565b73ffffffffffffffffffffffffffffffffffffffff166115ae6121ba565b73ffffffffffffffffffffffffffffffffffffffff1614611604576040517f08c379a00000000000000000000000000000000000000000000000000000000081526004016115fb90612ec7565b60405180910390fd5b61160e6000612995565b565b611618612931565b73ffffffffffffffffffffffffffffffffffffffff166116366121ba565b73ffffffffffffffffffffffffffffffffffffffff161461168c576040517f08c379a000000000000000000000000000000000000000000000000000000000815260040161168390612ec7565b60405180910390fd5b60096000600254815260200190815260200160002060080160009054906101000a900460ff16156116f2576040517f08c379a00000000000000000000000000000000000000000000000000000000081526004016116e990612e27565b60405180910390fd5b6000611733606461172560286009600060025481526020019081526020016000206002015461293990919063ffffffff16565b61291b90919063ffffffff16565b90506000611762826009600060025481526020019081526020016000206002015461294f90919063ffffffff16565b9050600160009054906101000a900473ffffffffffffffffffffffffffffffffffffffff1673ffffffffffffffffffffffffffffffffffffffff1663a9059cbb60096000600254815260200190815260200160002060080160019054906101000a900473ffffffffffffffffffffffffffffffffffffffff16846040518363ffffffff1660e01b81526004016117f9929190612d47565b602060405180830381600087803b15801561181357600080fd5b505af1158015611827573d6000803e3d6000fd5b505050506040513d601f19601f8201168201806040525081019061184b9190612ac1565b5060008060055467ffffffffffffffff811115611891577f4e487b7100000000000000000000000000000000000000000000000000000000600052604160045260246000fd5b6040519080825280602002602001820160405280156118bf5781602001602082028036833780820191505090505b50905060005b60096000600254815260200190815260200160002060090180549050811015611aeb5760096000600254815260200190815260200160002060080160019054906101000a900473ffffffffffffffffffffffffffffffffffffffff1673ffffffffffffffffffffffffffffffffffffffff166009600060025481526020019081526020016000206009018281548110611987577f4e487b7100000000000000000000000000000000000000000000000000000000600052603260045260246000fd5b9060005260206000200160009054906101000a900473ffffffffffffffffffffffffffffffffffffffff1673ffffffffffffffffffffffffffffffffffffffff1614611ad8576009600060025481526020019081526020016000206009018181548110611a1d577f4e487b7100000000000000000000000000000000000000000000000000000000600052603260045260246000fd5b9060005260206000200160009054906101000a900473ffffffffffffffffffffffffffffffffffffffff16828481518110611a81577f4e487b7100000000000000000000000000000000000000000000000000000000600052603260045260246000fd5b602002602001019073ffffffffffffffffffffffffffffffffffffffff16908173ffffffffffffffffffffffffffffffffffffffff16815250508280611ac6906131f0565b9350506005548310611ad757611aeb565b5b8080611ae3906131f0565b9150506118c5565b5060005b82811015611c0c57600160009054906101000a900473ffffffffffffffffffffffffffffffffffffffff1673ffffffffffffffffffffffffffffffffffffffff1663a9059cbb838381518110611b6e577f4e487b7100000000000000000000000000000000000000000000000000000000600052603260045260246000fd5b6020026020010151611b89868861291b90919063ffffffff16565b6040518363ffffffff1660e01b8152600401611ba6929190612d47565b602060405180830381600087803b158015611bc057600080fd5b505af1158015611bd4573d6000803e3d6000fd5b505050506040513d601f19601f82011682018060405250810190611bf89190612ac1565b508080611c04906131f0565b915050611aef565b50600160096000600254815260200190815260200160002060080160006101000a81548160ff0219169083151502179055507fc5285db7d8a9c3a0ce0e8982ff9a84fe8df355101d9545735558c69efb4aad576002546009600060025481526020019081526020016000206002015460096000600254815260200190815260200160002060010154604051611ca393929190612fa2565b60405180910390a150505050565b611cb9612931565b73ffffffffffffffffffffffffffffffffffffffff16611cd76121ba565b73ffffffffffffffffffffffffffffffffffffffff1614611d2d576040517f08c379a0000000000000000000000000000000000000000000000000000000008152600401611d2490612ec7565b60405180910390fd5b60096000600254815260200190815260200160002060080160009054906101000a900460ff1615611d93576040517f08c379a0000000000000000000000000000000000000000000000000000000008152600401611d8a90612e27565b60405180910390fd5b60008111611dd6576040517f08c379a0000000000000000000000000000000000000000000000000000000008152600401611dcd90612e87565b60405180910390fd5b600160009054906101000a900473ffffffffffffffffffffffffffffffffffffffff1673ffffffffffffffffffffffffffffffffffffffff166323b872dd3330846040518463ffffffff1660e01b8152600401611e3593929190612d70565b602060405180830381600087803b158015611e4f57600080fd5b505af1158015611e63573d6000803e3d6000fd5b505050506040513d601f19601f82011682018060405250810190611e879190612ac1565b50806009600060025481526020019081526020016000206002016000828254611eb0919061304b565b925050819055507f6a3439d7c23fbb5021ce59f7b0ddecbd9c4527387ac18116b8d9e92e297c1c5860025460096000600254815260200190815260200160002060020154604051611f02929190612f79565b60405180910390a150565b42600960008381526020019081526020016000206000015410611f65576040517f08c379a0000000000000000000000000000000000000000000000000000000008152600401611f5c90612e67565b60405180910390fd5b60006009600083815260200190815260200160002060050160003373ffffffffffffffffffffffffffffffffffffffff1673ffffffffffffffffffffffffffffffffffffffff1681526020019081526020016000205411611ffb576040517f08c379a0000000000000000000000000000000000000000000000000000000008152600401611ff290612f07565b60405180910390fd5b60006120078233612209565b9050600160009054906101000a900473ffffffffffffffffffffffffffffffffffffffff1673ffffffffffffffffffffffffffffffffffffffff1663a9059cbb33836040518363ffffffff1660e01b8152600401612066929190612da7565b602060405180830381600087803b15801561208057600080fd5b505af1158015612094573d6000803e3d6000fd5b505050506040513d601f19601f820116820180604052508101906120b89190612ac1565b5060006009600084815260200190815260200160002060050160003373ffffffffffffffffffffffffffffffffffffffff1673ffffffffffffffffffffffffffffffffffffffff168152602001908152602001600020819055507f32f4bbf1cadf836f12eaa6b063a4012d2357ef9bfb64d52c0b752fd32612fe2a82338360405161214593929190612f42565b60405180910390a15050565b60096020528060005260406000206000915090508060000154908060010154908060020154908060030154908060080160009054906101000a900460ff16908060080160019054906101000a900473ffffffffffffffffffffffffffffffffffffffff16905086565b60008060009054906101000a900473ffffffffffffffffffffffffffffffffffffffff16905090565b600860009054906101000a900473ffffffffffffffffffffffffffffffffffffffff1681565b6000806009600085815260200190815260200160002060050160008473ffffffffffffffffffffffffffffffffffffffff1673ffffffffffffffffffffffffffffffffffffffff16815260200190815260200160002054141561226f57600090506122dd565b6122798383610906565b90506009600084815260200190815260200160002060050160008373ffffffffffffffffffffffffffffffffffffffff1673ffffffffffffffffffffffffffffffffffffffff16815260200190815260200160002054816122da919061304b565b90505b92915050565b60006009600084815260200190815260200160002060040160008373ffffffffffffffffffffffffffffffffffffffff1673ffffffffffffffffffffffffffffffffffffffff16815260200190815260200160002054905092915050565b600a6020528060005260406000206000915090505481565b8061236660025433610906565b10156123a7576040517f08c379a000000000000000000000000000000000000000000000000000000000815260040161239e90612ee7565b60405180910390fd5b8060096000600254815260200190815260200160002060060160003373ffffffffffffffffffffffffffffffffffffffff1673ffffffffffffffffffffffffffffffffffffffff168152602001908152602001600020600082825461240c919061304b565b92505081905550600160009054906101000a900473ffffffffffffffffffffffffffffffffffffffff1673ffffffffffffffffffffffffffffffffffffffff1663a9059cbb33836040518363ffffffff1660e01b8152600401612470929190612da7565b602060405180830381600087803b15801561248a57600080fd5b505af115801561249e573d6000803e3d6000fd5b505050506040513d601f19601f820116820180604052508101906124c29190612ac1565b507fa1594d215a577c1905bcb0b5b186a40a0104714277441d4b2ac428c89bf7f4b160025433836040516124f893929190612f42565b60405180910390a150565b60006009600084815260200190815260200160002060050160008373ffffffffffffffffffffffffffffffffffffffff1673ffffffffffffffffffffffffffffffffffffffff16815260200190815260200160002054905092915050565b600061256c8261072a565b61257860025433610906565b10156125b9576040517f08c379a00000000000000000000000000000000000000000000000000000000081526004016125b090612ee7565b60405180910390fd5b426009600060025481526020019081526020016000206000015411612613576040517f08c379a000000000000000000000000000000000000000000000000000000000815260040161260a90612ea7565b60405180910390fd5b7f97fac0ce6558f4accbb4696915809c0ef7023ffe7ba9454e94d49fb652aae1d533600960006002548152602001908152602001600020600101548460405161265e93929190612dd0565b60405180910390a1600960006002548152602001908152602001600020600101549050919050565b61268e612931565b73ffffffffffffffffffffffffffffffffffffffff166126ac6121ba565b73ffffffffffffffffffffffffffffffffffffffff1614612702576040517f08c379a00000000000000000000000000000000000000000000000000000000081526004016126f990612ec7565b60405180910390fd5b42600960006002548152602001908152602001600020600001541061275c576040517f08c379a000000000000000000000000000000000000000000000000000000000815260040161275390612e07565b60405180910390fd5b81600481905550806003819055505050565b612776612931565b73ffffffffffffffffffffffffffffffffffffffff166127946121ba565b73ffffffffffffffffffffffffffffffffffffffff16146127ea576040517f08c379a00000000000000000000000000000000000000000000000000000000081526004016127e190612ec7565b60405180910390fd5b6103e8816127f891906130d2565b60078190555050565b612809612931565b73ffffffffffffffffffffffffffffffffffffffff166128276121ba565b73ffffffffffffffffffffffffffffffffffffffff161461287d576040517f08c379a000000000000000000000000000000000000000000000000000000000815260040161287490612ec7565b60405180910390fd5b600073ffffffffffffffffffffffffffffffffffffffff168173ffffffffffffffffffffffffffffffffffffffff1614156128ed576040517f08c379a00000000000000000000000000000000000000000000000000000000081526004016128e490612e47565b60405180910390fd5b6128f681612995565b50565b60075481565b60065481565b60008183612913919061304b565b905092915050565b6000818361292991906130a1565b905092915050565b600033905090565b6000818361294791906130d2565b905092915050565b6000818361295d919061312c565b905092915050565b6000610e108261297591906130d2565b83612980919061304b565b90508281101561298f57600080fd5b92915050565b60008060009054906101000a900473ffffffffffffffffffffffffffffffffffffffff169050816000806101000a81548173ffffffffffffffffffffffffffffffffffffffff021916908373ffffffffffffffffffffffffffffffffffffffff1602179055508173ffffffffffffffffffffffffffffffffffffffff168173ffffffffffffffffffffffffffffffffffffffff167f8be0079c531659141344cd1fd0a4f28419497f9722a3daafe3b4186f6b6457e060405160405180910390a35050565b600081359050612a6881613454565b92915050565b600081519050612a7d8161346b565b92915050565b600081359050612a9281613482565b92915050565b600060208284031215612aaa57600080fd5b6000612ab884828501612a59565b91505092915050565b600060208284031215612ad357600080fd5b6000612ae184828501612a6e565b91505092915050565b600060208284031215612afc57600080fd5b6000612b0a84828501612a83565b91505092915050565b60008060408385031215612b2657600080fd5b6000612b3485828601612a83565b9250506020612b4585828601612a59565b9150509250929050565b60008060408385031215612b6257600080fd5b6000612b7085828601612a83565b9250506020612b8185828601612a83565b9150509250929050565b612b94816131ba565b82525050565b612ba381613172565b82525050565b612bb281613160565b82525050565b612bc181613184565b82525050565b6000612bd460198361303a565b9150612bdf82613297565b602082019050919050565b6000612bf760148361303a565b9150612c02826132c0565b602082019050919050565b6000612c1a60268361303a565b9150612c25826132e9565b604082019050919050565b6000612c3d60108361303a565b9150612c4882613338565b602082019050919050565b6000612c60600e8361303a565b9150612c6b82613361565b602082019050919050565b6000612c83600c8361303a565b9150612c8e8261338a565b602082019050919050565b6000612ca660208361303a565b9150612cb1826133b3565b602082019050919050565b6000612cc960218361303a565b9150612cd4826133dc565b604082019050919050565b6000612cec60198361303a565b9150612cf78261342b565b602082019050919050565b612d0b816131b0565b82525050565b6000602082019050612d266000830184612ba9565b92915050565b6000602082019050612d416000830184612b9a565b92915050565b6000604082019050612d5c6000830185612b8b565b612d696020830184612d02565b9392505050565b6000606082019050612d856000830186612ba9565b612d926020830185612ba9565b612d9f6040830184612d02565b949350505050565b6000604082019050612dbc6000830185612ba9565b612dc96020830184612d02565b9392505050565b6000606082019050612de56000830186612ba9565b612df26020830185612d02565b612dff6040830184612d02565b949350505050565b60006020820190508181036000830152612e2081612bc7565b9050919050565b60006020820190508181036000830152612e4081612bea565b9050919050565b60006020820190508181036000830152612e6081612c0d565b9050919050565b60006020820190508181036000830152612e8081612c30565b9050919050565b60006020820190508181036000830152612ea081612c53565b9050919050565b60006020820190508181036000830152612ec081612c76565b9050919050565b60006020820190508181036000830152612ee081612c99565b9050919050565b60006020820190508181036000830152612f0081612cbc565b9050919050565b60006020820190508181036000830152612f2081612cdf565b9050919050565b6000602082019050612f3c6000830184612d02565b92915050565b6000606082019050612f576000830186612d02565b612f646020830185612ba9565b612f716040830184612d02565b949350505050565b6000604082019050612f8e6000830185612d02565b612f9b6020830184612d02565b9392505050565b6000606082019050612fb76000830186612d02565b612fc46020830185612d02565b612fd16040830184612d02565b949350505050565b600060c082019050612fee6000830189612d02565b612ffb6020830188612d02565b6130086040830187612d02565b6130156060830186612d02565b6130226080830185612bb8565b61302f60a0830184612b9a565b979650505050505050565b600082825260208201905092915050565b6000613056826131b0565b9150613061836131b0565b9250827fffffffffffffffffffffffffffffffffffffffffffffffffffffffffffffffff0382111561309657613095613239565b5b828201905092915050565b60006130ac826131b0565b91506130b7836131b0565b9250826130c7576130c6613268565b5b828204905092915050565b60006130dd826131b0565b91506130e8836131b0565b9250817fffffffffffffffffffffffffffffffffffffffffffffffffffffffffffffffff048311821515161561312157613120613239565b5b828202905092915050565b6000613137826131b0565b9150613142836131b0565b92508282101561315557613154613239565b5b828203905092915050565b600061316b82613190565b9050919050565b600061317d82613190565b9050919050565b60008115159050919050565b600073ffffffffffffffffffffffffffffffffffffffff82169050919050565b6000819050919050565b60006131c5826131cc565b9050919050565b60006131d7826131de565b9050919050565b60006131e982613190565b9050919050565b60006131fb826131b0565b91507fffffffffffffffffffffffffffffffffffffffffffffffffffffffffffffffff82141561322e5761322d613239565b5b600182019050919050565b7f4e487b7100000000000000000000000000000000000000000000000000000000600052601160045260246000fd5b7f4e487b7100000000000000000000000000000000000000000000000000000000600052601260045260246000fd5b7f50726576696f757320526f756e64204e6f7420456e6465642100000000000000600082015250565b7f526f756e6420616c726561647920656e64656421000000000000000000000000600082015250565b7f4f776e61626c653a206e6577206f776e657220697320746865207a65726f206160008201527f6464726573730000000000000000000000000000000000000000000000000000602082015250565b7f526f756e64204e6f7420456e6465642100000000000000000000000000000000600082015250565b7f496e76616c696420616d6f756e74000000000000000000000000000000000000600082015250565b7f526f756e6420456e646564210000000000000000000000000000000000000000600082015250565b7f4f776e61626c653a2063616c6c6572206973206e6f7420746865206f776e6572600082015250565b7f496e73756666696369656e74204469766964656e647320417661696c61626c6560008201527f2100000000000000000000000000000000000000000000000000000000000000602082015250565b7f596f75204861766520416c726561647920436c61696d65642100000000000000600082015250565b61345d81613160565b811461346857600080fd5b50565b61347481613184565b811461347f57600080fd5b50565b61348b816131b0565b811461349657600080fd5b5056fea26469706673582212209d7b5276d0e80f878ee32d5e9f832882b3688fba7a84a1ec60c26ef9933c6e6a64736f6c63430008040033",
  "linkReferences": {},
  "deployedLinkReferences": {}
}