{
  "_format": "hh-sol-artifact-1",
  "contractName": "MoonFomoV3",
  "sourceName": "contracts/MoonFomoV3.sol",
  "abi": [
    {
      "inputs": [
        {
          "internalType": "address payable",
          "name": "owner_",
          "type": "address"
        },
        {
          "internalType": "address payable",
          "name": "_moondayTokenAddress",
          "type": "address"
        }
      ],
      "stateMutability": "nonpayable",
      "type": "constructor"
    },
    {
      "anonymous": false,
      "inputs": [
        {
          "indexed": false,
          "internalType": "uint256",
          "name": "round",
          "type": "uint256"
        },
        {
          "indexed": false,
          "internalType": "address",
          "name": "claimant",
          "type": "address"
        },
        {
          "indexed": false,
          "internalType": "uint256",
          "name": "dividendAmount",
          "type": "uint256"
        }
      ],
      "name": "DividendClaimed",
      "type": "event"
    },
    {
      "anonymous": false,
      "inputs": [
        {
          "indexed": true,
          "internalType": "address",
          "name": "previousOwner",
          "type": "address"
        },
        {
          "indexed": true,
          "internalType": "address",
          "name": "newOwner",
          "type": "address"
        }
      ],
      "name": "OwnershipTransferred",
      "type": "event"
    },
    {
      "anonymous": false,
      "inputs": [
        {
          "indexed": false,
          "internalType": "uint256",
          "name": "round",
          "type": "uint256"
        },
        {
          "indexed": false,
          "internalType": "uint256",
          "name": "newJackpot",
          "type": "uint256"
        }
      ],
      "name": "RoundAddedTokens",
      "type": "event"
    },
    {
      "anonymous": false,
      "inputs": [
        {
          "indexed": false,
          "internalType": "uint256",
          "name": "round",
          "type": "uint256"
        },
        {
          "indexed": false,
          "internalType": "uint256",
          "name": "jackpot",
          "type": "uint256"
        },
        {
          "indexed": false,
          "internalType": "uint256",
          "name": "tickets",
          "type": "uint256"
        }
      ],
      "name": "RoundEnded",
      "type": "event"
    },
    {
      "anonymous": false,
      "inputs": [
        {
          "indexed": false,
          "internalType": "uint256",
          "name": "round",
          "type": "uint256"
        },
        {
          "indexed": false,
          "internalType": "uint256",
          "name": "endingTime",
          "type": "uint256"
        }
      ],
      "name": "RoundStarted",
      "type": "event"
    },
    {
      "anonymous": false,
      "inputs": [
        {
          "indexed": false,
          "internalType": "address",
          "name": "buyer",
          "type": "address"
        },
        {
          "indexed": false,
          "internalType": "uint256",
          "name": "ticketNumber",
          "type": "uint256"
        },
        {
          "indexed": false,
          "internalType": "uint256",
          "name": "ticketPrice",
          "type": "uint256"
        }
      ],
      "name": "TicketBought",
      "type": "event"
    },
    {
      "anonymous": false,
      "inputs": [
        {
          "indexed": false,
          "internalType": "uint256",
          "name": "round",
          "type": "uint256"
        },
        {
          "indexed": false,
          "internalType": "address",
          "name": "buyer",
          "type": "address"
        },
        {
          "indexed": false,
          "internalType": "uint256",
          "name": "claimAmount",
          "type": "uint256"
        }
      ],
      "name": "TicketClaimed",
      "type": "event"
    },
    {
      "anonymous": false,
      "inputs": [
        {
          "indexed": false,
          "internalType": "address",
          "name": "seller",
          "type": "address"
        },
        {
          "indexed": false,
          "internalType": "uint256",
          "name": "ticketNumber",
          "type": "uint256"
        },
        {
          "indexed": false,
          "internalType": "uint256",
          "name": "ticketPrice",
          "type": "uint256"
        }
      ],
      "name": "TicketSold",
      "type": "event"
    },
    {
      "inputs": [],
      "name": "_owner",
      "outputs": [
        {
          "internalType": "address payable",
          "name": "",
          "type": "address"
        }
      ],
      "stateMutability": "view",
      "type": "function"
    },
    {
      "inputs": [
        {
          "internalType": "uint256",
          "name": "_amount",
          "type": "uint256"
        }
      ],
      "name": "addTokensToRound",
      "outputs": [],
      "stateMutability": "payable",
      "type": "function"
    },
    {
      "inputs": [
        {
          "internalType": "uint256",
          "name": "_amount",
          "type": "uint256"
        }
      ],
      "name": "buyPrice",
      "outputs": [
        {
          "internalType": "uint256",
          "name": "",
          "type": "uint256"
        }
      ],
      "stateMutability": "view",
      "type": "function"
    },
    {
      "inputs": [
        {
          "internalType": "uint256",
          "name": "_amount",
          "type": "uint256"
        }
      ],
      "name": "buyTicket",
      "outputs": [
        {
          "internalType": "uint256",
          "name": "",
          "type": "uint256"
        }
      ],
      "stateMutability": "payable",
      "type": "function"
    },
    {
      "inputs": [
        {
          "internalType": "uint256",
          "name": "_round",
          "type": "uint256"
        },
        {
          "internalType": "address",
          "name": "_ticketHolder",
          "type": "address"
        }
      ],
      "name": "calcDividends",
      "outputs": [
        {
          "internalType": "uint256",
          "name": "totalDividends",
          "type": "uint256"
        }
      ],
      "stateMutability": "view",
      "type": "function"
    },
    {
      "inputs": [
        {
          "internalType": "uint256",
          "name": "_round",
          "type": "uint256"
        },
        {
          "internalType": "address",
          "name": "_ticketHolder",
          "type": "address"
        }
      ],
      "name": "calcPayout",
      "outputs": [
        {
          "internalType": "uint256",
          "name": "totalClaim",
          "type": "uint256"
        }
      ],
      "stateMutability": "view",
      "type": "function"
    },
    {
      "inputs": [
        {
          "internalType": "uint256",
          "name": "_amount",
          "type": "uint256"
        }
      ],
      "name": "claimDividends",
      "outputs": [],
      "stateMutability": "nonpayable",
      "type": "function"
    },
    {
      "inputs": [
        {
          "internalType": "uint256",
          "name": "_round",
          "type": "uint256"
        }
      ],
      "name": "claimPayout",
      "outputs": [],
      "stateMutability": "nonpayable",
      "type": "function"
    },
    {
      "inputs": [],
      "name": "endRound",
      "outputs": [],
      "stateMutability": "nonpayable",
      "type": "function"
    },
    {
      "inputs": [
        {
          "internalType": "uint256",
          "name": "_round",
          "type": "uint256"
        },
        {
          "internalType": "address",
          "name": "_user",
          "type": "address"
        }
      ],
      "name": "getClaimList",
      "outputs": [
        {
          "internalType": "uint256",
          "name": "",
          "type": "uint256"
        }
      ],
      "stateMutability": "view",
      "type": "function"
    },
    {
      "inputs": [
        {
          "internalType": "uint256",
          "name": "_round",
          "type": "uint256"
        },
        {
          "internalType": "address",
          "name": "_user",
          "type": "address"
        }
      ],
      "name": "getReclaim",
      "outputs": [
        {
          "internalType": "uint256",
          "name": "",
          "type": "uint256"
        }
      ],
      "stateMutability": "view",
      "type": "function"
    },
    {
      "inputs": [
        {
          "internalType": "uint256",
          "name": "_round",
          "type": "uint256"
        }
      ],
      "name": "getRoundLatestHolders",
      "outputs": [
        {
          "internalType": "address[]",
          "name": "",
          "type": "address[]"
        }
      ],
      "stateMutability": "view",
      "type": "function"
    },
    {
      "inputs": [
        {
          "internalType": "uint256",
          "name": "_round",
          "type": "uint256"
        },
        {
          "internalType": "uint256",
          "name": "_ticketIndex",
          "type": "uint256"
        }
      ],
      "name": "getTicketOwner",
      "outputs": [
        {
          "internalType": "address",
          "name": "",
          "type": "address"
        }
      ],
      "stateMutability": "view",
      "type": "function"
    },
    {
      "inputs": [
        {
          "internalType": "uint256",
          "name": "_round",
          "type": "uint256"
        },
        {
          "internalType": "address",
          "name": "_user",
          "type": "address"
        }
      ],
      "name": "getTicketsOwned",
      "outputs": [
        {
          "internalType": "uint256",
          "name": "",
          "type": "uint256"
        }
      ],
      "stateMutability": "view",
      "type": "function"
    },
    {
      "inputs": [],
      "name": "hoursForRound",
      "outputs": [
        {
          "internalType": "uint256",
          "name": "",
          "type": "uint256"
        }
      ],
      "stateMutability": "view",
      "type": "function"
    },
    {
      "inputs": [
        {
          "internalType": "uint256",
          "name": "_amount",
          "type": "uint256"
        }
      ],
      "name": "initRound",
      "outputs": [],
      "stateMutability": "payable",
      "type": "function"
    },
    {
      "inputs": [
        {
          "internalType": "uint256",
          "name": "",
          "type": "uint256"
        }
      ],
      "name": "jackpotClaimed",
      "outputs": [
        {
          "internalType": "uint256",
          "name": "",
          "type": "uint256"
        }
      ],
      "stateMutability": "view",
      "type": "function"
    },
    {
      "inputs": [],
      "name": "maxlatestholders",
      "outputs": [
        {
          "internalType": "uint256",
          "name": "",
          "type": "uint256"
        }
      ],
      "stateMutability": "view",
      "type": "function"
    },
    {
      "inputs": [],
      "name": "owner",
      "outputs": [
        {
          "internalType": "address",
          "name": "",
          "type": "address"
        }
      ],
      "stateMutability": "view",
      "type": "function"
    },
    {
      "inputs": [],
      "name": "renounceOwnership",
      "outputs": [],
      "stateMutability": "nonpayable",
      "type": "function"
    },
    {
      "inputs": [],
      "name": "roundCount",
      "outputs": [
        {
          "internalType": "uint256",
          "name": "",
          "type": "uint256"
        }
      ],
      "stateMutability": "view",
      "type": "function"
    },
    {
      "inputs": [
        {
          "internalType": "uint256",
          "name": "",
          "type": "uint256"
        }
      ],
      "name": "rounds",
      "outputs": [
        {
          "internalType": "uint256",
          "name": "timer",
          "type": "uint256"
        },
        {
          "internalType": "uint256",
          "name": "ticketCount",
          "type": "uint256"
        },
        {
          "internalType": "uint256",
          "name": "jackpot",
          "type": "uint256"
        },
        {
          "internalType": "uint256",
          "name": "holderPool",
          "type": "uint256"
        },
        {
          "internalType": "bool",
          "name": "ended",
          "type": "bool"
        },
        {
          "internalType": "address payable",
          "name": "maxticketsholder",
          "type": "address"
        }
      ],
      "stateMutability": "view",
      "type": "function"
    },
    {
      "inputs": [],
      "name": "secondsIncrement",
      "outputs": [
        {
          "internalType": "uint256",
          "name": "",
          "type": "uint256"
        }
      ],
      "stateMutability": "view",
      "type": "function"
    },
    {
      "inputs": [
        {
          "internalType": "uint256",
          "name": "_amount",
          "type": "uint256"
        }
      ],
      "name": "sellPrice",
      "outputs": [
        {
          "internalType": "uint256",
          "name": "",
          "type": "uint256"
        }
      ],
      "stateMutability": "view",
      "type": "function"
    },
    {
      "inputs": [
        {
          "internalType": "uint256",
          "name": "_amount",
          "type": "uint256"
        }
      ],
      "name": "sellTicket",
      "outputs": [
        {
          "internalType": "uint256",
          "name": "",
          "type": "uint256"
        }
      ],
      "stateMutability": "payable",
      "type": "function"
    },
    {
      "inputs": [
        {
          "internalType": "uint256",
          "name": "_hours",
          "type": "uint256"
        }
      ],
      "name": "setHoursForRound",
      "outputs": [],
      "stateMutability": "nonpayable",
      "type": "function"
    },
    {
      "inputs": [
        {
          "internalType": "uint256",
          "name": "_seconds",
          "type": "uint256"
        }
      ],
      "name": "setIncrementSeconds",
      "outputs": [],
      "stateMutability": "nonpayable",
      "type": "function"
    },
    {
      "inputs": [
        {
          "internalType": "address",
          "name": "newOwner",
          "type": "address"
        }
      ],
      "name": "transferOwnership",
      "outputs": [],
      "stateMutability": "nonpayable",
      "type": "function"
    }
  ],
  "bytecode": "0x60806040526006600355600a6004556103e86005553480156200002157600080fd5b5060405162001f3738038062001f378339810160408190526200004491620000ee565b6200004f3362000081565b600680546001600160a01b039384166001600160a01b0319918216179091556001805492909316911617905562000125565b600080546001600160a01b038381166001600160a01b0319831681178455604051919092169283917f8be0079c531659141344cd1fd0a4f28419497f9722a3daafe3b4186f6b6457e09190a35050565b80516001600160a01b0381168114620000e957600080fd5b919050565b6000806040838503121562000101578182fd5b6200010c83620000d1565b91506200011c60208401620000d1565b90509250929050565b611e0280620001356000396000f3fe6080604052600436106101b75760003560e01c80638da5cb5b116100ec578063c178c2f91161008a578063f192866a11610064578063f192866a14610597578063f2fde38b146105aa578063f3e37571146105ca578063f7746068146105e057600080fd5b8063c178c2f914610510578063c4dbf62214610557578063cb197eb21461057757600080fd5b8063b2c03f3f116100c6578063b2c03f3f1461045c578063b81335671461047c578063bc0ca734146104c3578063bd7047c4146104f057600080fd5b80638da5cb5b146103fe578063911e279c1461041c578063b2bdfa7b1461043c57600080fd5b806367dd74ca11610159578063749aa2d911610133578063749aa2d91461032157806385ed4c8e146103365780638a69614e146103495780638c65c81f1461036957600080fd5b806367dd74ca146102e657806368938939146102f9578063715018a61461030c57600080fd5b806341a3bffc1161019557806341a3bffc146102285780635f773d7f1461024857806363471dbf146102a457806366abfdec146102c657600080fd5b8063121b73e7146101bc578063127f0b3f146101e557806339dd7a21146101fb575b600080fd5b3480156101c857600080fd5b506101d260035481565b6040519081526020015b60405180910390f35b3480156101f157600080fd5b506101d260025481565b34801561020757600080fd5b5061021b610216366004611bec565b6105f6565b6040516101dc9190611c50565b34801561023457600080fd5b506101d2610243366004611c04565b6106ac565b34801561025457600080fd5b5061028c610263366004611c2f565b60009182526007602081815260408085209385529290910190529020546001600160a01b031690565b6040516001600160a01b0390911681526020016101dc565b3480156102b057600080fd5b506102c46102bf366004611bec565b6106d9565b005b3480156102d257600080fd5b506101d26102e1366004611c04565b610708565b6101d26102f4366004611bec565b6107cb565b6102c4610307366004611bec565b610c92565b34801561031857600080fd5b506102c4610dec565b34801561032d57600080fd5b506102c4610e22565b6102c4610344366004611bec565b61125e565b34801561035557600080fd5b506102c4610364366004611bec565b611387565b34801561037557600080fd5b506103c6610384366004611bec565b600760205260009081526040902080546001820154600283015460038401546008909401549293919290919060ff81169061010090046001600160a01b031686565b604080519687526020870195909552938501929092526060840152151560808301526001600160a01b031660a082015260c0016101dc565b34801561040a57600080fd5b506000546001600160a01b031661028c565b34801561042857600080fd5b506101d2610437366004611bec565b6114f8565b34801561044857600080fd5b5060065461028c906001600160a01b031681565b34801561046857600080fd5b506101d2610477366004611c04565b61159a565b34801561048857600080fd5b506101d2610497366004611c04565b60008281526007602090815260408083206001600160a01b038516845260040190915290205492915050565b3480156104cf57600080fd5b506101d26104de366004611bec565b60086020526000908152604090205481565b3480156104fc57600080fd5b506102c461050b366004611bec565b6115eb565b34801561051c57600080fd5b506101d261052b366004611c04565b60008281526007602090815260408083206001600160a01b038516845260050190915290205492915050565b34801561056357600080fd5b506101d2610572366004611bec565b6116d5565b34801561058357600080fd5b506102c4610592366004611bec565b611745565b6101d26105a5366004611bec565b611781565b3480156105b657600080fd5b506102c46105c5366004611bb2565b611919565b3480156105d657600080fd5b506101d260055481565b3480156105ec57600080fd5b506101d260045481565b606060025482111561063f5760405162461bcd60e51b815260206004820152600d60248201526c125b9d985b1a59081c9bdd5b99609a1b60448201526064015b60405180910390fd5b600082815260076020908152604091829020600901805483518184028101840190945280845290918301828280156106a057602002820191906000526020600020905b81546001600160a01b03168152600190910190602001808311610682575b50505050509050919050565b60008281526007602090815260408083206001600160a01b03851684526006019091529020545b92915050565b6000546001600160a01b031633146107035760405162461bcd60e51b815260040161063690611cf8565b600455565b600060025483111561072c5760405162461bcd60e51b815260040161063690611ccb565b60008381526007602052604090206001015461074a575060006106d3565b6000838152600760209081526040808320600181015460038201546001600160a01b038816865260049092019093529220546107909261078a91906119b4565b906119c0565b60008481526007602090815260408083206001600160a01b03871684526006019091529020549091506107c49082906119cc565b9392505050565b60025460009081526007602052604081206008015460ff16156108005760405162461bcd60e51b815260040161063690611c9d565b600082116108415760405162461bcd60e51b815260206004820152600e60248201526d125b9d985b1a5908185b5bdd5b9d60921b6044820152606401610636565b600061084c836116d5565b90506108593330836119d8565b905061086b606461078a8360146119b4565b60076000600254815260200190815260200160002060020160008282546108929190611d2d565b909155506108a89050606461078a83600a6119b4565b600254600090815260076020526040812060030180549091906108cc908490611d2d565b909155506108fb90506108e082600a6119c0565b6108f56108ee8460056119c0565b84906119cc565b906119cc565b60025460009081526007602090815260408083203384526005019091528120805490919061092a908490611d2d565b909155505060025460009081526007602090815260408083203384526004019091528120805485929061095e908490611d2d565b90915550600090505b838110156109d4576002805460009081526007602081815260408084206001808201548652908401835281852080546001600160a01b031916331790559454845291905281209091018054916109bc83611d9b565b919050555080806109cc90611d9b565b915050610967565b5060025460009081526007602052604090206008015461010090046001600160a01b03161580610a3a57506002546000908152600760209081526040808320600881015461010090046001600160a01b0316845260040190915280822054338352912054115b15610a695760025460009081526007602052604090206008018054610100600160a81b03191633610100021790555b60035460025460009081526007602052604090206009015410610bca5760005b600254600090815260076020526040902060090154610aaa90600190611d84565b811015610b75576002546000908152600760205260409020600901610ad0826001611d2d565b81548110610aee57634e487b7160e01b600052603260045260246000fd5b600091825260208083209091015460025483526007909152604090912060090180546001600160a01b039092169183908110610b3a57634e487b7160e01b600052603260045260246000fd5b600091825260209091200180546001600160a01b0319166001600160a01b039290921691909117905580610b6d81611d9b565b915050610a89565b506002546000908152600760205260409020600901805480610ba757634e487b7160e01b600052603160045260246000fd5b600082815260209020810160001990810180546001600160a01b03191690550190555b600280546000908152600760209081526040808320600901805460018101825590845291832090910180546001600160a01b031916331790556005549254825281208054909190610c1c908490611d2d565b9091555050600254600090815260076020908152604091829020600101548251338152918201529081018290527f97fac0ce6558f4accbb4696915809c0ef7023ffe7ba9454e94d49fb652aae1d59060600160405180910390a15050600254600090815260076020526040902060010154919050565b6000546001600160a01b03163314610cbc5760405162461bcd60e51b815260040161063690611cf8565b6002541580610cdf575060025460009081526007602052604090206008015460ff165b610d2b5760405162461bcd60e51b815260206004820152601960248201527f50726576696f757320526f756e64204e6f7420456e64656421000000000000006044820152606401610636565b60028054906000610d3b83611d9b565b91905055506000610d4d3330846119d8565b9050806007600060025481526020019081526020016000206002016000828254610d779190611d2d565b92505081905550610d8a42600454611a80565b60028054600090815260076020526040808220939093559054808252908290205491517f278844837bcf8364a705384bf3a2812901f54155bae86dea81dd52aa5b9ec0e392610de0928252602082015260400190565b60405180910390a15050565b6000546001600160a01b03163314610e165760405162461bcd60e51b815260040161063690611cf8565b610e206000611aa7565b565b6000546001600160a01b03163314610e4c5760405162461bcd60e51b815260040161063690611cf8565b60025460009081526007602052604090206008015460ff1615610e815760405162461bcd60e51b815260040161063690611c9d565b60028054600090815260076020526040812090910154610ea99060649061078a9060286119b4565b6002805460009081526007602052604081209091015491925090610ecd90836119cc565b6002546000908152600760209081526040808320600881015461010090046001600160a01b03168452600501909152902054909150610f0d908390611af7565b6002546000908152600760209081526040808320600881015461010090046001600160a01b03168452600501909152812082905560035491935090819067ffffffffffffffff811115610f7057634e487b7160e01b600052604160045260246000fd5b604051908082528060200260200182016040528015610f99578160200160208202803683370190505b50905060005b6002546000908152600760205260409020600901548110156110d75760025460009081526007602052604090206008810154600990910180546101009092046001600160a01b0316918390811061100657634e487b7160e01b600052603260045260246000fd5b6000918252602090912001546001600160a01b0316146110c557600254600090815260076020526040902060090180548290811061105457634e487b7160e01b600052603260045260246000fd5b9060005260206000200160009054906101000a90046001600160a01b031682848151811061109257634e487b7160e01b600052603260045260246000fd5b6001600160a01b0390921660209283029190910190910152826110b481611d9b565b93505060035483106110c5576110d7565b806110cf81611d9b565b915050610f9f565b5060005b828110156111da576111616110f085856119c0565b600760006002548152602001908152602001600020600501600085858151811061112a57634e487b7160e01b600052603260045260246000fd5b60200260200101516001600160a01b03166001600160a01b0316815260200190815260200160002054611af790919063ffffffff16565b600760006002548152602001908152602001600020600501600084848151811061119b57634e487b7160e01b600052603260045260246000fd5b60200260200101516001600160a01b03166001600160a01b031681526020019081526020016000208190555080806111d290611d9b565b9150506110db565b5060028054600090815260076020526040808220600801805460ff191660019081179091558354808452928290209384015493015490517fc5285db7d8a9c3a0ce0e8982ff9a84fe8df355101d9545735558c69efb4aad5793611250939290919283526020830191909152604082015260600190565b60405180910390a150505050565b6000546001600160a01b031633146112885760405162461bcd60e51b815260040161063690611cf8565b60025460009081526007602052604090206008015460ff16156112bd5760405162461bcd60e51b815260040161063690611c9d565b600081116112fe5760405162461bcd60e51b815260206004820152600e60248201526d125b9d985b1a5908185b5bdd5b9d60921b6044820152606401610636565b600061130b3330846119d8565b90508060076000600254815260200190815260200160002060020160008282546113359190611d2d565b909155505060028054600081815260076020526040908190209092015491517f6a3439d7c23fbb5021ce59f7b0ddecbd9c4527387ac18116b8d9e92e297c1c5892610de0928252602082015260400190565b6002548111156113a95760405162461bcd60e51b815260040161063690611ccb565b6000818152600760205260409020544211806113d6575060008181526007602052604090206008015460ff165b6114155760405162461bcd60e51b815260206004820152601060248201526f526f756e64204e6f7420456e6465642160801b6044820152606401610636565b600081815260076020908152604080832033845260050190915290205461147e5760405162461bcd60e51b815260206004820152601960248201527f596f75204861766520416c726561647920436c61696d656421000000000000006044820152606401610636565b600061148a823361159a565b60008381526007602090815260408083203380855260059091019092528220919091559091506114ba9082611b03565b50604080518381523360208201529081018290527f32f4bbf1cadf836f12eaa6b063a4012d2357ef9bfb64d52c0b752fd32612fe2a90606001610de0565b600254600090815260076020526040812060030154611533576106d38261152d6611c37937e0800066038d7ea4c680006119cc565b906119b4565b6002546000908152600760205260408120600301546115899061156b90670de0b6b3a76400009061078a9066038d7ea4c680006119b4565b6115836611c37937e0800066038d7ea4c680006119cc565b90611af7565b90506107c481846119b4565b919050565b60006002548311156115be5760405162461bcd60e51b815260040161063690611ccb565b5060008281526007602090815260408083206001600160a01b038516845260050190915290205492915050565b806115f860025433610708565b10156116505760405162461bcd60e51b815260206004820152602160248201527f496e73756666696369656e74204469766964656e647320417661696c61626c656044820152602160f81b6064820152608401610636565b60025460009081526007602090815260408083203384526006019091528120805483929061167f908490611d2d565b9091555061168f90503382611b03565b506002546040805191825233602083015281018290527fa1594d215a577c1905bcb0b5b186a40a0104714277441d4b2ac428c89bf7f4b19060600160405180910390a150565b6002546000908152600760205260408120600301546116ff576106d36611c37937e08000836119b4565b6002546000908152600760205260408120600301546115899061173790670de0b6b3a76400009061078a9066038d7ea4c680006119b4565b6611c37937e0800090611af7565b6000546001600160a01b0316331461176f5760405162461bcd60e51b815260040161063690611cf8565b61177b816103e8611d65565b60055550565b60025460009081526007602052604081206008015460ff16156117b65760405162461bcd60e51b815260040161063690611c9d565b600254600090815260076020908152604080832033845260040190915290205482111561181c5760405162461bcd60e51b8152602060048201526014602482015273496e73756666696369656e74207469636b65747360601b6044820152606401610636565b6000611827836114f8565b600254600090815260076020908152604080832033845260040190915281208054929350859290919061185b908490611d84565b909155505060025460009081526007602052604081206001018054859290611884908490611d84565b9091555050600254600090815260076020526040812060030180548392906118ad908490611d84565b909155506118bd90503382611b03565b50600254600090815260076020908152604091829020600101548251338152918201529081018290527f7486e610a6d07e1419063632389e57b8c133ced5e70fea2d926ad3f99df982189060600160405180910390a192915050565b6000546001600160a01b031633146119435760405162461bcd60e51b815260040161063690611cf8565b6001600160a01b0381166119a85760405162461bcd60e51b815260206004820152602660248201527f4f776e61626c653a206e6577206f776e657220697320746865207a65726f206160448201526564647265737360d01b6064820152608401610636565b6119b181611aa7565b50565b60006107c48284611d65565b60006107c48284611d45565b60006107c48284611d84565b6001546040516323b872dd60e01b81526001600160a01b03858116600483015284811660248301526044820184905260009216906323b872dd90606401602060405180830381600087803b158015611a2f57600080fd5b505af1158015611a43573d6000803e3d6000fd5b505050506040513d601f19601f82011682018060405250810190611a679190611bcc565b50611a78606461078a8460616119b4565b949350505050565b6000611a8e610e1083611d65565b611a989084611d2d565b9050828110156106d357600080fd5b600080546001600160a01b038381166001600160a01b0319831681178455604051919092169283917f8be0079c531659141344cd1fd0a4f28419497f9722a3daafe3b4186f6b6457e09190a35050565b60006107c48284611d2d565b60015460405163a9059cbb60e01b81526001600160a01b03848116600483015260248201849052600092169063a9059cbb90604401602060405180830381600087803b158015611b5257600080fd5b505af1158015611b66573d6000803e3d6000fd5b505050506040513d601f19601f82011682018060405250810190611b8a9190611bcc565b506107c4606461078a8460616119b4565b80356001600160a01b038116811461159557600080fd5b600060208284031215611bc3578081fd5b6107c482611b9b565b600060208284031215611bdd578081fd5b815180151581146107c4578182fd5b600060208284031215611bfd578081fd5b5035919050565b60008060408385031215611c16578081fd5b82359150611c2660208401611b9b565b90509250929050565b60008060408385031215611c41578182fd5b50508035926020909101359150565b6020808252825182820181905260009190848201906040850190845b81811015611c915783516001600160a01b031683529284019291840191600101611c6c565b50909695505050505050565b602080825260149082015273526f756e6420616c726561647920656e6465642160601b604082015260600190565b602080825260139082015272125b9d985b1a59081c9bdd5b990818dbdd5b9d606a1b604082015260600190565b6020808252818101527f4f776e61626c653a2063616c6c6572206973206e6f7420746865206f776e6572604082015260600190565b60008219821115611d4057611d40611db6565b500190565b600082611d6057634e487b7160e01b81526012600452602481fd5b500490565b6000816000190483118215151615611d7f57611d7f611db6565b500290565b600082821015611d9657611d96611db6565b500390565b6000600019821415611daf57611daf611db6565b5060010190565b634e487b7160e01b600052601160045260246000fdfea2646970667358221220d85e6ff60131c58b6fbd50b2ed001481ca64cebad8e2b124cadd7704749a166b64736f6c63430008040033",
  "linkReferences": {},
  "deployedLinkReferences": {}
}